:020000040800F2
:1000000000180020A5160008911400089314000899
:1000100000000000000000000000000000000000E0
:10002000000000000000000000000000951400081F
:100030000000000000000000971400089914000858
:1000400025170008251700082517000825170008A0
:100050002517000825170008251700082517000890
:1000600025170008A1140008251700082517000807
:10007000B1140008251700082517000825170008E7
:10008000251700080000000000000000C11400084F
:10009000000000002517000825170008D1140008EB
:1000A0000000000025170008251700082517000884
:1000B0002517000800000000251700082517000874
:1000C00010B5064C2378002B07D1054B002B02D02E
:1000D000044800E000BF0123237010BD400400204D
:1000E00000000000183D0008044B10B5002B03D0A1
:1000F0000349044800E000BF10BDC04600000000F6
:1001000044040020183D0008002243088B4274D3A9
:1001100003098B425FD3030A8B4244D3030B8B4208
:1001200028D3030C8B420DD3FF22090212BA030C11
:100130008B4202D31212090265D0030B8B4219D3F2
:1001400000E0090AC30B8B4201D3CB03C01A524112
:10015000830B8B4201D38B03C01A5241430B8B425A
:1001600001D34B03C01A5241030B8B4201D30B0343
:10017000C01A5241C30A8B4201D3CB02C01A52416A
:10018000830A8B4201D38B02C01A5241430A8B422D
:1001900001D34B02C01A5241030A8B4201D30B0216
:1001A000C01A5241CDD2C3098B4201D3CB01C01A30
:1001B000524183098B4201D38B01C01A524143093A
:1001C0008B4201D34B01C01A524103098B4201D328
:1001D0000B01C01A5241C3088B4201D3CB00C01A95
:1001E000524183088B4201D38B00C01A524143080D
:1001F0008B4201D34B00C01A5241411A00D2014632
:10020000524110467047FFE701B5002000F006F8A4
:1002100002BDC0460029F7D076E770477047C04658
:1002200003685A0004D5802212061343C018704791
:100230005B005B08FAE7C046F8B557464546DE4620
:100240004E469046E0B50700002924D04B1E9A4642
:10025000994600239B465B464B44DC0FE418641030
:10026000E5007E193000FFF7DBFFA2450CD04045CA
:100270000CD8280008303818FFF7D2FF0138404565
:100280000AD2631C9B46E6E7404505D9A34502D048
:10029000631E9946DFE700263000F0BCBB46B2463D
:1002A000A946A046F8BDC0460300012805D0022893
:1002B00007D00020002B02D070470348FCE703481A
:1002C000FAE70348F8E7C046D1090008C509000865
:1002D000DD09000830B5234B050083B08C1E002BD0
:1002E00026D0200001A900E000BF00281CD0019901
:1002F0002200FFF7A1FF041E16D0FFF791FF6368ED
:10030000A864012B2AD0201D002B23DBFFF788FFD8
:100310000023E8642B650368002B0FDBFFF780FFE9
:100320002861002003B030BD002309202B61F9E7CC
:100330000D480E49091AC9100191D9E71801000F9B
:10034000FFF7B2FF2861431E9841082340429843BB
:100350000930E7E70123E8642B65DCE7002305208B
:100360002B61DFE700000000C43D0008AC3E000840
:10037000036810B50400DA0705D49B070AD5483096
:1003800000F080FC23685A070AD51A070FD5DB0650
:1003900015D510BD483000F071FC23685A07F4D41D
:1003A0002000D03000F072FC23681A07EFD4200040
:1003B0005130FF3000F06EFC2368DB06E9D42000EA
:1003C000D130FF3000F06AFCE3E7C04609207047F7
:1003D00003000068002800D0C01870477047C0466E
:1003E00070B504000D002000296CFFF773FF002892
:1003F00011D12B6C2A0063612100012023699847E9
:100400000828F0D0072806D10020296CFFF7E6FF66
:10041000281D00F01DFC03F0DFFAC046F0B5CE4603
:10042000474680B5C368304C9846A54483690400AC
:1004300016000431402205A8994603F0FDFA002376
:10044000049325E0F022149B5200636104A97CA868
:10045000039303F0F1FA2100280023697CAA98474E
:100460008A9B0500039315934B46019304AB0093BD
:100470002200230031000120C047002822D1F022B1
:100480007CA9520004A803F0D7FA0026082D22D137
:10049000149B200019000393FFF71CFF0936070087
:1004A000F5B20028CED0129B1021039315934B4632
:1004B000019304AB00932200230001202943C0478D
:1004C000002800D009273800F5239B009D44C0BCBC
:1004D000B946B046F0BD072DF4D130001499FFF7AE
:1004E0007DFF05A800F0B4FB2CFCFFFF406C7047BB
:1004F00070B5CB6BFAB00B6405000E0040220431DE
:1005000003A803F099FA01235B42029306E0290055
:100510002B6902AA9847040008280AD1129B2800D8
:1005200019000193FFF7D6FE0028F0D009207AB019
:1005300070BD02A8FFF71CFF062CF7D13100280080
:10054000FFF74EFF10B58261DA6BC1601A641900C3
:100550000022FFF763FF10BD436970B50B64C368E9
:1005600004000D00002B13D10A00236901000220B2
:100570009847072805D008280FD129002000FFF749
:100580002FFF0020296CFFF729FF281D00F060FBDA
:100590000122FFF743FF03F01FFA03F01DFAC046E4
:1005A000C36810B5002B05D0CB6B00220B64FFF79E
:1005B00035FF10BDFFF79CFFFBE7C0467047C04604
:1005C0008368010010B5002B01D00120984710BDB1
:1005D000012915D00AD8002B10D10F2A0ED892006D
:1005E00082185268009B00201A6006E0012003393F
:1005F000C9B2884280414042013070470220FCE786
:100600000120FAE700B585B003AB0A000093002192
:100610000023FFF7DDFF039805B000BD012915D0C9
:100620000AD8002B10D10F2A0ED8009B92001B680D
:1006300082185360002006E001200339C9B28842C5
:1006400080414042013070470220FCE70120FAE778
:1006500000B585B003AB039200930A00002300218C
:10066000FFF7DCFF05B000BD70B51A4CD36BA54495
:10067000136405000C0019A8111D402203F0DCF9D9
:1006800001235B42189314E00C2118A802AAFFF77B
:10069000DFFF210018A8A847002812D1069B18AA3E
:1006A00002A9083001939847060005280AD00928B6
:1006B00007D0289B02A819000193FFF70BFE002822
:1006C000E2D0092618A8FFF753FE300090239B00C4
:1006D0009D4470BDC0FDFFFFF0B557469246032212
:1006E00045464E46DE4699461300E0B58846CD6C39
:1006F000494689B00340009308CD0695002900D1F2
:1007000080E01A0C1B040593022304A90B73FD332C
:1007100013409B004A73ED18009B022B01D1434606
:100720009D6B43461B6DDB070FD5504605A900F0B6
:100730005BFB002801D1082000E0092009B0F0BCD3
:10074000BB46B246A946A046F0BD2F68002FECD0AC
:1007500008230340029300230193013354469B4630
:100760004646BA464B46022B49D02B886F889A469C
:1007700004355A463B009343B26C0F21904620004B
:100780009844FFF73FFF0023804506D853465A465A
:100790009343434498429B415B4202227F001740AF
:1007A000594652460A401743012F30D0022F4CD0F1
:1007B000002FC2D1009A002A02D0002B00D09BE06B
:1007C00004352B689A46002BCCD1200005A9A246FF
:1007D00000F00AFB0028B0D1019B002BABD00F2109
:1007E0005046FFF70FFF0E2102005046FFF730FF83
:1007F00050460F21724AFFF72BFF07209EE76F68D4
:100800000835B6E71B02059304AB9A8184E7009A8A
:10081000002A49D1002B16D02B68DF0F6B689A1C79
:1008200000D18AE7320058320492013300D1B6E099
:10083000281DFFF7CDFD3A00010004AB300000E0B9
:1008400000BF00286CD10835BBE72A680099570023
:100850007F0800290DD1002B04D0029B002B72D001
:10086000002F3CD0002A00DA04350137BF00ED1913
:10087000A7E7336A0D2120009846FFF7C3FE8045A5
:1008800001D02A68EEE7B36A9D42FAD10023F362F1
:10089000043333632B1DB76273632B68002B00DABC
:1008A00087E001230193E0E70D212000376AFFF77D
:1008B000A9FE8742C7D1B36A9D42C4D1B046A246C1
:1008C0002800FFF7ADFC0F2102005046FFF7C0FEE5
:1008D000504642460021FFF7BBFE07202EE7B046F8
:1008E000A2460D215046FFF78DFE4346049A18623A
:1008F0005A6206209D6221E72800FFF791FC04352B
:10090000A246B5630400300000E000BF002800D11B
:1009100013E7504622000F21FFF79AFE07200DE74C
:10092000A2460D2104005046FFF76CFEB04633008E
:100930003062022C39D1049A2C33F262736243463E
:1009400006209D62FAE62B1D9A46002398465833EE
:100950009C4621004A46B4445446A9468A463D0076
:1009600003924746E0460EE0434620000493FFF71B
:100970002FFD0022010004AB300000E000BF013772
:100980000434002804D1AF42EED14D46B046A8E76A
:100990002F004D46039B544699462A6862E70D2175
:1009A0002000FFF72FFEB04630624346049A5A6299
:1009B000C5E7781C8000B046A246281881E7C046EB
:1009C0000000000010B50023FFF786FE10BDC046F2
:1009D00010B50123FFF780FE10BDC04610B50223FD
:1009E000FFF77AFE10BDC046F0B5CE46474680B54B
:1009F000050014001E00C3B0032944D020D80029EC
:100A000049D0012941D1130C14049846230C99466E
:100A1000012E00D17AE0052E37D144464C44202CDB
:100A200033D843460F2B00D8B5E04C46002C00D0FD
:100A3000C2E04A46A96B20AF002A22D000247FE002
:100A4000042922D1002B20D1102A1ED8102203689D
:100A50001A4200D0C7E020AF380000F021F901268B
:100A600039000023AA6B30009840044201D001CA2B
:100A7000086001330431042BF5D13800AA6300F07B
:100A80000DF9002002E0032B1CD0022043B0C0BCB3
:100A9000B946B046F0BD002BF7D10023012716045C
:100AA000826B360C011D38009840064201D001CA05
:100AB000086001330431102BF5D10020A304E5D4E4
:100AC000AA63E3E71404160C240C3319102BDCD8AA
:100AD000082203681A4200D08CE020AF380000F0F2
:100AE000DBF8F600AB6B002C0AD0F61AE400321FDC
:100AF0001C19BA181900096804339950A342F9D196
:100B00003800AB6300F0C6F80020BFE743464B4413
:100B1000102BBAD843460F2BB7D82B681E4206D0ED
:100B20000322280093432B60483000F0A9F820AF3F
:100B3000380000F0A5F84A460024A96B002A61D0CD
:100B40004346DB00FF180023D200C858F850043396
:100B50009A42FAD18918002C0FD06F4640461028CF
:100B600000D2102000231038C0003818E200CF58FF
:100B7000C75004339342FAD1C918012E41D04346DD
:100B8000A9630F2B45D9002C00D17AE7684600F005
:100B90007DF800207AE7102C46D9103C01222B6802
:100BA0001A4207D093430222280013432B60483097
:100BB00000F06AF8002C39D004222B681A422CD19C
:100BC00043460F2B03D820AF380000F05DF86F4686
:100BD000380000F05DF810224346A96BD21A002AB3
:100BE000BCDD20AFACE793430360D130FF3000F0B1
:100BF00057F830E7934303605130FF3000F04CF872
:100C00006BE720AF04313800A96300F037F800200B
:100C10003CE720A800F036F8B5E7280093432B60A6
:100C2000D03000F035F8CBE70024B7E743460F2B70
:100C300000D9FEE620AF380000F026F84A46A96B3E
:100C4000002A00D0FAE6380000F01CF800201DE76A
:100C50000100343138C9043B9C461D60A6460100A2
:100C600020313CC990469946A246AB460100083166
:100C7000FCC941680068E54600BDC0467047C046F3
:100C80007047C0467047C0467047C0467047C04670
:100C90007047C0467047C0467047C0467047C04660
:100CA0007047C04601B401A801B585B0FFB408A8DB
:100CB00041464A4653465C4665463EC001A83EC88A
:100CC0000F98009000230CB401A9FFF711FC109BB2
:100CD00012B0184701B401A801B585B0FFB408A847
:100CE00041464A4653465C4665463EC001A83EC85A
:100CF0000F98009000230CB401A9FFF72DFC109B66
:100D000012B0184701B401A801B585B0FFB408A816
:100D100041464A4653465C4665463EC001A83EC829
:100D20000F98009000230CB401A9FFF739FC109B29
:100D300012B0184701B401A801B585B0FFB408A8E6
:100D400041464A4653465C4665463EC001A83EC8F9
:100D50000F98009000230CB401ABFFF7F3FB109B3E
:100D600012B0184701B401A801B585B0FFB408A8B6
:100D700041464A4653465C4665463EC001A83EC8C9
:100D80000F98009000230CB401AAFFF76DFC109B94
:100D900012B01847027A0300002A0BD1427A002AC7
:100DA0000FD0013A42724268111D4160032112685E
:100DB000017202E0013A02720268100E12021A6019
:100DC0007047B020FCE7C04600B585B003AB009388
:100DD0000C2200230021FFF7FBFB039805B000BDA8
:100DE00010B5FFF7F1FF10BDF0B54E46454657462A
:100DF000DE460023E0B587B003930F339846083BE7
:100E0000994680231B0305000E009A463000FFF729
:100E1000C1FF0400B02800D1C1E0030629D50300BA
:100E200042469343DBB2802B53D0902B3DD0A02B76
:100E30006BD0B02B00D17EE0C02B00D195E0030039
:100E40004A469343DBB2D02B0AD1534602400132CB
:100E50001A43052301212800FFF7C6FD0028D5D03D
:100E60000924200007B0F0BCBB46B246A946A04604
:100E7000F0BDFF23820013401F1D05AB9B4600936E
:100E80000D22002300212800FFF7A2FB630639D4BE
:100E9000059B9C4667445B460597009300230D2203
:100EA00000212800FFF7BAFBB0E7833B03400D2B7E
:100EB000D6D005AF02400023002128000097FFF79D
:100EC00087FB00230D22002128000097FFF7A6FBD7
:100ED0009CE704023000FFF75DFF802720433F02BC
:100EE000B842BDD004010005020C002300212800F7
:100EF000FFF77AFD0028B3D13C4200D186E70123F9
:100F0000039383E7059BDF1BC5E7FF234A461B01CD
:100F10001900824311410A001A40030702D58023B9
:100F2000DB011A43002300212800FFF75DFD0028A4
:100F300000D16BE794E7B12845D0B22800D19FE0FB
:100F4000B32855D0FC230340B42B00D188E74A4690
:100F50005346024001321A43012101232800FFF7C2
:100F600043FD002800D151E77AE7C6284BD0C728B7
:100F70005DD003004A469343DBB2C02B6CD0C82837
:100F800071D0C92800D06BE73000FFF703FFF023D2
:100F900002031B03134042460240013258E7039B01
:100FA0000024002B00D05CE705AE0E2200212800B3
:100FB0000096FFF70DFB00230F220021280000966A
:100FC000FFF72CFB4DE73000FFF7E4FE021E00D1D7
:100FD00046E7030041468B43DBB2002B00D03FE7DE
:100FE00000212800FFF700FD002800D10EE737E7B9
:100FF0003000FFF7CFFEF02302031B0313404246ED
:1010000002400132A7E73000FFF7C4FEF0230203DD
:101010001B0313404246024001321A4303230321BB
:101020002800FFF7E1FC002800D1EFE618E73000C8
:10103000FFF7B0FE021E00D112E7030041468B43CA
:10104000DBB2002B00D00BE704212800FFF7CCFC1B
:10105000002800D1DAE603E74346A0221C40013411
:1010600012032243DAE73000FFF794FE4346020002
:101070009A43D2B210321840120301300243E8E61C
:1010800005AB00939B460D22002300212800FFF7AB
:101090009FFA3000FFF77EFE03061AD57F27B03C8B
:1010A000059B3840A0409C466044059030000734C2
:1010B000FFF770FE0306F3D481217F2389008C465D
:1010C0000340A340059A62449B1805935B46009336
:1010D000E4E60224F0E7C046030000B5DA6C85B010
:1010E00053680800083219020191029269460322EE
:1010F0001B0E0A734B7301A9FFF776FE05B000BD06
:1011000010B5FFF76DFE806C10BDC04610B5FFF73F
:1011100067FEC26CD07902308000101810BDC04646
:1011200000B585B00C22002101A802F0D7FC1848B8
:10113000184B0360002343608360C3600122026197
:1011400004214161037643768376C376C221FF3161
:10115000C16103629E39FF394354826200F076FB1D
:1011600000280FD10423019380235B010293802385
:101170005B05039301A9064800F096FC002804D102
:1011800005B000BD00F018F9ECE700F015F9F7E73D
:101190005C0400200024014010B588B00400142233
:1011A000002103A802F09AFC224B22689A4201D047
:1011B00008B010BD204B99698020800001439961DF
:1011C0009A6902400192019A5A69802189020A4370
:1011D0005A615B690B400293029B102303930D3B02
:1011E00004937138FF3803A9C00500F05BFF134872
:1011F000134B03600023436083608022C26080320F
:1012000002618022D20042618361C36100F05CFD13
:1012100000280BD1094B23635C62002201210C20C2
:1012200000F0E8FC0C2000F015FDC1E700F0C4F868
:10123000F0E7C04600240140001002409C0400205A
:101240000800024000B583B0094A516901231943DF
:101250005161526913400193019B00220021092032
:1012600000F0C8FC092000F0F5FC03B000BDC0464A
:101270000010024010B588B01422002103A802F02B
:101280002DFC134B59698020C003014359615A69F1
:1012900002400192019A5A69802189020A435A61E7
:1012A0005B690B400293029B0A4C00220321200041
:1012B00000F0B8FF03230393023B0493002305933C
:1012C000069303A9200000F0EDFE08B010BDC04653
:1012D000001002400014004810B51548154B03607B
:1012E000154B436016238360153BC36080231B02AC
:1012F0000361002343618361C361036200F0DEFF89
:1013000000280CD100210A4801F0AAFB002809D1CD
:101310000021074801F0D0FB002806D110BD00F0E5
:101320004BF8EFE700F048F8F2E700F045F8F5E792
:10133000E0040020005400400E09002010B588B0E1
:1013400004001422002103A802F0C8FB2268184BF5
:101350009A4201D008B010BD164C62698021890202
:101360000A43626163690B400193019BC023DB0068
:10137000039312230493113B059302330693013325
:101380000793902003A9C00500F08CFEE26980213C
:1013900089030A43E261E3690B400293029B002246
:1013A0000021172000F026FC172000F053FCD1E7A5
:1013B000005400400010024072B6FEE710B598B02D
:1013C000342200210BA802F089FB102410220021F6
:1013D00007A802F083FB1822002101A802F07EFB7F
:1013E00032230B93313B0E93139310930F9411946C
:1013F0000BA801F08BFB002817D107230793043BB0
:101400000893002309930A93012107A801F05CFEC9
:1014100000280CD1202301930023049301A801F09C
:10142000F5FE002805D118B010BDFFF7C5FFFFF786
:10143000C3FFFFF7C1FF10B500F0E6F9FFF7BEFFED
:10144000FFF718FFFFF7FEFEFFF76AFEFFF744FF06
:1014500000F0DAF800F060F802F066FAFEE700004B
:1014600082B00A4B996901221143996199690A4036
:101470000092009ADA69802149050A43DA61DB6942
:101480000B400193019B02B07047C0460010024020
:10149000FEE7FEE77047704710B500F0C5F910BDD4
:1014A00010B5024800F05DFC10BDC0469C04002051
:1014B00010B5024800F090FA10BDC0465C04002050
:1014C00010B5024801F0FDFF10BDC04634050020F4
:1014D00010B5074B1B689A69E023DB001A4203D062
:1014E000034801F07FFA10BD014800F055FFFAE70C
:1014F000E00400200120704710B502F075FA1623B1
:1015000003600120404210BD10B501214942FFF7A0
:10151000F3FFFEE77047000010B50948094B036070
:101520002F23436000238360074AC2600361836105
:1015300002F0B6F8002800D110BDFFF73DFFFBE731
:1015400034050020002000408713000082B00268AC
:10155000074B9A4201D002B07047064AD169022374
:101560001943D161D26913400193019BF3E7C0464F
:10157000000400400010024000B583B002680C4B2C
:101580009A4201D003B000BD0A4AD16980204000D0
:101590000143D161D36903400193019B00220321E0
:1015A000ED3800F027FB132000F054FBEAE7C046BB
:1015B000002000400010024010B586B00400142244
:1015C000002101A802F08AFA22680D4B9A4201D04C
:1015D00006B010BD0B4A5169802080020143516161
:1015E000536903400093009BC0230193BE3B0293C9
:1015F000013B0593902001A9C00500F053FDE7E7EA
:10160000000400400010024000B58BB00822002109
:1016100008A802F063FA1C22002101A802F05EFA79
:101620001D481E4B03600023436083601C4AC26058
:101630000361836102F060F8002821D10023089340
:10164000099308A9144802F03BF900281BD1602334
:1016500001930023029303930593002201A90E48EE
:1016600002F0B6F8002811D1042201A90A4802F0BC
:10167000AFF800280DD10848FFF79EFF0BB000BD62
:10168000FFF79AFEDAE7FFF797FEE0E7FFF794FE31
:10169000EAE7FFF791FEEEE77C050020000400403A
:1016A000E703000013488546FFF734FF124801683E
:1016B000090E124A914205D111481249016012489F
:1016C0001249016012481349134A002302E0D4581A
:1016D000C4500433C4188C42F9D3104A104C002370
:1016E00001E013600432A242FBD302F083F9FFF75A
:1016F000A2FEFEE700180020040000001F0000000A
:10170000181002400100000000000140000000002D
:10171000000000203C040020B83E000840040020E7
:10172000280A0020FEE70000014B185C7047C04605
:10173000C8050020014B19547047C046C805002059
:1017400010B58022D2000249024802F075F910BD9E
:10175000007C0008C805002030B587B00023029344
:1017600001930133059300F085FB02A903A800F063
:1017700047FC002815D10D4C00250D4B9C4210D87C
:101780000C496918202201A802F056F9019A002399
:101790002100022000F0BCFB002802D104340435F3
:1017A000EBE700F07FFB07B030BDC046007C0008CF
:1017B000FF7F0008C805002010B504000F4B197802
:1017C000FA208000FEF7A0FC01000D4B1868FEF720
:1017D0009BFC00F04BFA00280DD1032C01D901200D
:1017E0000AE0013000222100404200F003FA054BDC
:1017F0001C60002000E0012010BDC0460400002055
:10180000000000200800002010B5064A13681021CF
:101810000B4313600020FFF7CFFFFFF721FE0020EE
:1018200010BDC04600200240034A1168034B1B78DC
:101830005B1813607047C046C809002004000020F0
:10184000014B18687047C046C809002070B5041ED7
:1018500000D1B4E0836B002B00D180E0A36BDB06EA
:1018600000D5A6E022689168042005000D400842DA
:1018700000D09EE0A16B534B19400633FF33194350
:10188000A163916801330B40012B6ED0D3681821FE
:101890008B43A1680B43D360226813699B009B08AC
:1018A00061680B4313612268D36847490B40D360DA
:1018B000237E9B03627ED2031343A17E4A0313431C
:1018C000A26A012A58D0802252011343E2681343CE
:1018D0002269022A52D02B432422A25C52001343D5
:1018E000E27E012A4CD0E269C221FF318A4202D055
:1018F000216A0A4313432168CA681A43CA60E26A2C
:10190000802149058A420DD0012A0BD0022A09D034
:10191000032A07D0042A05D0052A03D0062A01D0BD
:10192000072A0AD120684169072291434161206852
:101930004169E56A2A400A4342612268D268234924
:101940000A409A422BD0A36B12229343023A1343CC
:10195000A363E36B0F3A1343E36301202EE0C363F9
:1019600034228354FFF718FC78E71368DB079AD416
:10197000D3681B0497D489E72A00A6E70425AAE7C1
:10198000002903D1802252021343ACE7A26B20212D
:101990000A43A263E26B1F390A43E263A3E7002311
:1019A000E363A36B03229343023A1343A363002030
:1019B00004E0A36B10221343A363012070BD012038
:1019C000FCE7C046FDFEFFFF1902FEFFE7FF3F8375
:1019D000704770477047000070B5040003681D68C9
:1019E0005E686A0701D5720703D42A0727D5320734
:1019F00025D5A26BD20604D4A16B802292000A43A3
:101A0000A263D968C0221201114212D1A27E002A1B
:101A10000FD12A070DD59A6852072DD45A680C2188
:101A20008A435A60A36B1F4A13400432FF321343A8
:101A3000A3632000FFF7CCFF23680C221A602B065B
:101A400001D5330621D4EB0615D5F30613D5A36AC9
:101A5000012B03D02368DB68DB0709D5E36B022287
:101A60001343E36323680E321A602000FFF7B2FFCE
:101A7000236810221A6070BDA36B20221343A36356
:101A8000E36B1F3A1343E363D3E7A26B80235B024C
:101A90001343A3632000FFF79CFF236880221A6092
:101AA000D1E7C046FEFEFFFF30B583B0040000233F
:101AB00001933433C35C012B00D18AE0342301222B
:101AC000C25403689A68520775D4434A48689042E2
:101AD00056D09A6A01200D68A84002439A62E36AD0
:101AE0008022520593421ED0012B1CD0022B1AD00B
:101AF000032B18D0042B16D0052B14D0062B12D094
:101B0000072B10D022685069072303408868984249
:101B100009D05069072398435061206842698D6855
:101B20002B40134343610B681A00103A022A4CD829
:101B30002A4A1268102B0ED0112B09D080235B0487
:101B40001343264A13600B68102B07D0002037E0A0
:101B50008023DB03F4E780231B04F1E7204B1868A4
:101B60002049FEF7D1FA83001B185B00019302E0C5
:101B7000019B013B0193019B002BF9D100201FE049
:101B80009A6A01200D68A84082439A620B681A0085
:101B9000103A022A1BD8114A1268102B09D0112BB7
:101BA00005D0114B13400D4A1360002008E00F4B85
:101BB000F8E70F4BF6E7836B202213438363012082
:101BC00034230022E25403B030BD0020F8E70020A7
:101BD000F6E70220F7E7C0460110000008270140A1
:101BE0000000002040420F00FFFFFFFEFFFFBFFF8D
:101BF000FFFF7FFF70B5002811DB8308134EC03351
:101C00009B009D5903242040C000FF221400844003
:101C1000A54389010A4082402A439A5170BD0F238F
:101C20000340083B9B0806339B00094A94466344E3
:101C30005C6803221040C000FC3215008540AC43B4
:101C400089010A40824022435A60E7E700E100E050
:101C500000ED00E0002805DB1F2318401E3B8340F9
:101C6000014A13607047C04600E100E0013880235C
:101C70005B0498420FD2094A50600948036A1B026C
:101C80001B0AC02109060B4303620023936007333C
:101C90001360002070470120FCE7C04610E000E020
:101CA00000ED00E010B504000068054B9C46604460
:101CB0001421FEF729FA80002064024BE36310BD73
:101CC000F8FFFDBF0000024070B5041E20D02125A2
:101CD0000223435501680B680E4A1A404368806826
:101CE0000343E06803432069034360690343A06939
:101CF0000343E069034313430B602000FFF7D2FF67
:101D00000023A363012262551F32A354002070BD3B
:101D10000120FCE70FC0FFFF10B52123C35C022B9D
:101D200003D004238363012010BD026813680E21D1
:101D30008B43136001680A6801239A430A60C26BEF
:101D40001900046CA1405160212283541F330022EA
:101D5000C254436B002B02D098470020E4E70020D8
:101D6000E2E770B5C36B1A6804682568016C042348
:101D70008B401A4212D06B0710D523689B0603D400
:101D80002368042293432360C26B0423016C8B40BD
:101D90005360C36A002B00D0984770BD02238B406C
:101DA0001A4218D0AB0716D523689B0606D42368C1
:101DB0000A22934323602123093AC254C26B0223AF
:101DC000016C8B40536020230022C254836A002B95
:101DD000E3D09847E1E708238B401A42DDD02B0778
:101DE000DBD523680E2293432360C26B01231900C5
:101DF000046CA14051608363212283541F3300226D
:101E0000C254036B002BC8D09847C6E72123C05C9F
:101E1000C0B2704710B5054B0022DA61044A13695D
:101E2000012423431361018010BDC046D009002066
:101E3000002002400D4BDA6810210B0013401142C4
:101E400005D00B4AD3690E390B43D3611023074ADF
:101E5000D268520706D50649CA6901200243CA6101
:101E600004221343014AD3607047C0460020024059
:101E7000D0090020084B1B691B0609D5064B074AF1
:101E80005A60074A5A601B691B0603D4002000E011
:101E9000002070470120FCE7002002402301674535
:101EA000AB89EFCD034A136980210B4313610020F6
:101EB0007047C0460020024070B50400FFF7C0FC28
:101EC0000500124BDB68DB070AD5631CF9D0002C38
:101ED00004D0FFF7B5FC401BA042F2D903200FE06D
:101EE0000A4BDB689B0602D5084B2022DA60074BC1
:101EF000DB68DB0605D4054BDB685B0701D40020FB
:101F000070BDFFF797FF0120FAE7C04600200240AE
:101F1000F8B5CE46474680B505000E0090461F0036
:101F2000224B1B7E012B3ED0204B01221A762048EB
:101F3000FFF7C2FF041E2FD1012D07D0022D02D0C2
:101F4000042399461DE0022399461AE0012399468D
:101F500017E02022D21A390091400A004146D940A8
:101F6000114389B28019FFF755FF1148FFF7A4FF0D
:101F7000104A136901218B43136100280CD10134ED
:101F8000E4B24C4508D260002301202252429A1844
:101F9000DFD43900D140E4E7044B00221A76C0BCFC
:101FA000B946B046F8BD0220F9E7C046D009002086
:101FB00050C3000000200240064B0022DA61064BAD
:101FC0001A6904210A431A611A693C310A431A61E9
:101FD0007047C046D009002000200240064B002276
:101FE000DA61064B1A6902210A431A6158611A69BB
:101FF0003E310A431A617047D00900200020024098
:1020000070B505000E00244B1B7E012B41D0224BE6
:1020100001221A760368012B22D02048FFF74CFFDB
:10202000002831D101235B4233606C680130AB681A
:102030009B026A6894466344A34226D92000FFF7B6
:10204000CDFF1648FFF738FF154A136902218B436D
:102050001361002816D18023DB009C466444E6E728
:102060000E48FFF729FF002801D001200DE0FFF7FF
:10207000A3FF0A48FFF720FF094A136904218B4395
:10208000136102E0346000E00120034B00221A7665
:1020900070BD0220FCE7C046D009002050C30000FC
:1020A00000200240F0B583B0002357E084685F0051
:1020B0000326BE40B4432600CC68BC403443846051
:1020C000446894434A681609012232409A402243E8
:1020D000426053E0DC080834A400265805321A4058
:1020E00092000F279740BE430F6997403A00324352
:1020F000225057E0022600E00026A64034003C4370
:1021000002329200424E9451424A9468EA432600B9
:10211000AE434F68FF0201D52C4326003D4CA6601C
:10212000E468260016404F68BF0201D52C43260004
:10213000384CE6606468260016404F68BF0301D53E
:102140002C432600334C6660246822404E68F60318
:1021500001D52A0022432F4C226001330C68220053
:10216000DA4052D001229A40250015401442F4D0A2
:1021700003244E683440013C012C97D903224C685B
:102180002240032A09D0C2685E000324B440A2435F
:1021900014008A68B2402243C26003224C68224085
:1021A000022A97D004685E0003221700B740BC43A0
:1021B0004F683A40B24022430260C02292024C680B
:1021C0001442CAD0144CA66901221643A661A46920
:1021D00022400192019A9A08941CA4000C4EA7591F
:1021E00003241C40A4000F26A640B7439026F60502
:1021F000B04281D0094EB04205D0094EB04200D164
:1022000078E7052679E7012677E703B0F0BDC046F9
:10221000000001400004014000100240000400489A
:1022200000080048002A01D0816170478162FCE704
:1022300003689A69920701D500229A6203689A6935
:10224000D20703D49A6901210A439A61704730B5D5
:10225000CB0709D54123C35C28221340282B01D08A
:10226000F22302E01A3300E000238A0709D5442450
:102270001C434122825C28252A40282A0FD0F422C0
:1022800013430AB2002A0CDB10290DD020290ED0EE
:1022900040290FD001680A689A430A6030BD2300C4
:1022A000EFE7B8221343EFE790221343EEE7202233
:1022B0001343EDE740221343ECE7000010B5041E82
:1022C00060D04123C35C002B48D041232422E25438
:1022D0002268136801218B43136022682A4B6168CE
:1022E0000B4013612268936828490B409360E368B0
:1022F000012B39D0226884231B02A1680B43936011
:10230000E368022B37D02268536821490B405360A1
:10231000226851681F4B0B4353602268D3681B49E6
:102320000B40D360236962691343A26912022168DA
:102330001343CB602268E369216A0B431360226870
:10234000136801210B4313600023636441221F3192
:10235000A15423630132A354002010BD4033002256
:10236000C254FEF7EBFFB0E7226880231B02A1688E
:102370000B439360C4E72268516880231B010B4321
:102380005360C5E70120E8E7FFFFFFF0FF7FFFFF95
:10239000FFF7FFFF0080000210B5036899691A6813
:1023A000436B002B00D0984710BD7047704700006A
:1023B00010B5040003681A684221002060545104DB
:1023C0000CD51A6819490A401A604123E35C292B8D
:1023D0000BD04123E35C2A2B17D010BD1204F4D597
:1023E0001A6813490A401A60EFE718332822E254AA
:1023F000203B236301212000FFF729FF4023002217
:10240000E2542000FFF7D1FFE7E717332822E25418
:102410001F3B236302212000FFF719FF4023002206
:10242000E2542000FFF7C2FFD7E7C046FFBFFFFF1F
:10243000FF7FFFFF7047F8B504004123C35C2822EB
:102440001340282B06D003680822DA6140230022BB
:10245000C254F8BD01688E69360C273B1E408D6959
:102460002D0CFE273D408B689B059B0DCA681740CD
:10247000C268022A24D1DA096A400620104211D12A
:10248000A26C0132A264A26C022AE2D10022A264F0
:102490000230C861402162541A0031002000FFF769
:1024A000C9FFD6E7802109022000FFF7D0FE4023B4
:1024B0000022E2543A0031002000FFF7BBFFC8E7DA
:1024C00080210902FFF7C3FE40230022E2542A00C4
:1024D00031002000FFF7AEFFBBE7704710B50400E6
:1024E000164BC3620023036341222020A054013213
:1024F000A35463634B0713D523685B6A626A137046
:10250000636A01336362238D002B09D0013B23856D
:10251000638D013B9BB26385636C04221343636448
:1025200007492000FFF793FE23681022DA61402359
:102530000022E2542000FFF7D0FF10BD0000FFFF93
:10254000038000007047704710B54123C35C602BC7
:1025500006D00023036340228354FFF7F3FF10BD2E
:102560001F3B2022C2540023036320328354FFF711
:10257000EAFFF4E710B504004123C35C00204222C7
:10258000A054434AE2626085626C0A436264283B5D
:10259000DBB2022B1BD803212000FFF758FE41239A
:1025A0002822E2543B4B6363236BA26B002A03D0C7
:1025B000112B2DD0212B2BD0E26B002A03D0122B14
:1025C00046D0222B44D02000FFF7BEFF10BD324979
:1025D0002000FFF73CFE2000FFF72AFE4123E35CCA
:1025E000602B12D020234122A354226891690B4210
:1025F0000BD09369DB0605D51023D361636C0422ED
:102600001343636423682022DA6100236363CBE70A
:1026100023681A68520403D51A6820490A401A60D0
:10262000A06BFFF7F3FB01280ED0A36B1C4A5A6383
:1026300040230022E254A06BFFF76EFB0028C5D0B8
:10264000A06B436B9847C1E72000FFF77DFFBDE714
:1026500023681A68120403D51A6812490A401A60DE
:10266000E06BFFF7D3FB01280ED0E36B0C4A5A63F3
:1026700040230022E254E06BFFF74EFB0028A5D078
:10268000E06B436B9847A1E72000FFF75DFF9DE7F4
:102690000000FFFFA128000803800000FFBFFFFF2C
:1026A000432A0008FF7FFFFFF8B504000D00016812
:1026B0000E68C76A4123C25CD3B22020C861212AB8
:1026C0000ED0292B0CD0222B75D02A2B73D0282B7F
:1026D0000CD16C492000FFF7BAFD0023236305E00D
:1026E00069492000FFF7B3FD212323632268516865
:1026F00080231B020B4353602268536863490B40DD
:1027000053602000FFF794FD73045BD522681368C3
:102710005F490B401360A36B002B03D01B685B6801
:102720009BB263856B0711D504239D4323685B6AC5
:10273000626A1370636A01336362238D002B05D0D4
:10274000013B2385638D013B9BB26385638D9BB207
:10275000002B03D0636C042213436364EB0610D593
:10276000F3060ED5638D9BB2002B50D14133E35C51
:10277000282B36D04123E35C292B3BD02368102241
:10278000DA6100234222A3546363636C002B50D1AF
:10279000E26A404B9A4259D14123E35C222B65D037
:1027A00041232022E254002323632032A35420003B
:1027B000FFF7FBFD59E038492000FFF748FD2223D1
:1027C000236393E73304ADD52268136833490B4084
:1027D0001360E36B002BA5D01B685B689BB263851D
:1027E000A0E780239B049F42C4D129002000FFF76B
:1027F00075FEC6E7274B9F42C0D023681022DA61DE
:102800002000FFF715FD2000FFF7D2FDB9E7236890
:102810001022DA61636C0C3A13436364002F03D017
:1028200080235B049F42ACD1616C2000FFF7A2FEC5
:10283000A7E7616C2000FFF79DFE4123E35C282B96
:1028400013D129002000FFF749FE0EE02000FFF71A
:10285000AFFD104BE36241232022E25400232363A7
:102860002032A3542000FFF738FEF8BD1F3320228A
:10287000E254002323632032A3542000FFF796FD87
:10288000F3E7C046038000000180000000E800FE7E
:10289000FFBFFFFF0000FFFF02800000FF7FFFFF80
:1028A00070B50400C56A4023C35C012B00D195E0DC
:1028B0000123402023544809034201D0930613D436
:1028C000CB0640D5D3063ED5638D9BB2002B28D1D5
:1028D0004133E35C282B0FD04123E35C292B13D039
:1028E00023681022DA6102E02000FFF7DDFE4023BA
:1028F0000022E254002070BD80239B049D42EBD156
:102900002000FFF7EBFDF2E7354B9D42E8D023684E
:102910001022DA612000FFF78BFC2000FFF748FD52
:10292000E5E723681022DA61636C0C3A13436364B1
:10293000002D03D080235B049D42D8D1616C200020
:10294000FFF718FED3E74B071ED553071CD5638D41
:102950009BB2002B0DD023685B6A626A1370636AB6
:1029600001336362238D013B2385638D013B9BB261
:102970006385638D9BB2002BB9D1194B9D42B6D0B4
:102980002000FFF715FDB2E70B0701D5130716D49A
:102990008B07ACD59307AAD5638D9BB2002B12D0C1
:1029A0002368626A12789A62636A01336362638D94
:1029B000013B9BB26385238D013B238597E7200074
:1029C000FFF739FD93E780235B049D4202D0002D81
:1029D00000D08CE72000FFF7EBFC88E702208AE7B5
:1029E0000000FFFF70B5026893691168DC0508D527
:1029F0000C0606D5446C01252C43446480246400F5
:102A0000D4615A0509D50A0607D5426C0824224329
:102A1000426402688024E400D4619B0509D50B065A
:102A200007D5436C0222134343640368FF32FF322D
:102A3000DA61416C0B230B4200D170BDFFF79AFDA8
:102A4000FBE710B5406A836B002B01D000225A636C
:102A5000C36B002B01D000225A63FFF775FD10BD38
:102A6000F0B54123C35C202B20D12033C35C012B64
:102A70001ED04024012202554125242343550668D7
:102A8000336893433360066833680A4F3B403360D2
:102A9000066833681943316001680B6813430B60A3
:102AA00020234355002303550020F0BD0220FCE7FE
:102AB0000220FAE7FFEFFFFFF0B54123C35C202BB4
:102AC0001ED12033C35C012B1CD0402401220255AF
:102AD00041252423435506683368934333600668D1
:102AE0003368094F3B4009021943316001680B68A4
:102AF00013430B6020234355002303550020F0BDF2
:102B00000220FCE70220FAE7FFF0FFFF70B582B079
:102B1000041E00D17FE20368DB072BD5B34B5A6854
:102B20000C231340042B1DD0B04B5A680C231340C8
:102B3000082B0ED06368012B41D0002B56D1AB4B34
:102B40001A68AB490A401A601A68AA490A401A6012
:102B50003BE0A64B5B68C022520213408022520227
:102B60009342E7D1A14B1B689B0303D56368002BFD
:102B700000D153E223689B0777D59C4B5B680C22FE
:102B80001A4262D0994B5A680C231340082B53D039
:102B9000E368002B00D18AE0944A136801210B43BB
:102BA0001360FEF74DFE0500904B1B689B0775D424
:102BB000FEF746FE401B0228F6D903202CE28B4A82
:102BC000116880235B020B4313606368002B25D0E0
:102BD000FEF736FE0500854B1B689B03CAD4FEF743
:102BE0002FFE401B6428F6D9032015E2052B09D0DF
:102BF0007E4B1A687E490A401A601A687D490A406D
:102C00001A60E2E7794B19688022D2020A431A60FF
:102C10001968802252020A431A60D6E7FEF710FEB6
:102C20000500724B1B689B03A4D5FEF709FE401BF1
:102C30006428F6D90320EFE16C4B5B68C022520296
:102C40001340802212029342A2D1684B1B689B075B
:102C500003D5E368012B00D0E2E164490B68F82258
:102C600093432269D20013430B6023681B0744D5AA
:102C7000E369002B2ED05D4A536A01210B43536256
:102C8000FEF7DEFD0500594B5B6A9B0735D4FEF766
:102C9000D7FD401B0228F6D90320BDE153490B683C
:102CA000F82293432269D20013430B60DDE74F4AB9
:102CB000136801218B431360FEF7C2FD05004B4BE7
:102CC0001B689B07D1D5FEF7BBFD401B0228F6D938
:102CD0000320A1E1454A536A01218B435362FEF769
:102CE000AFFD0500414B5B6A9B0706D5FEF7A8FDCB
:102CF000401B0228F6D903208EE123685B0700D42D
:102D000080E03A4BDB69DB001DD4384AD169802072
:102D100040050143D161D36903400193019B012523
:102D2000354B1B68DB0510D5A368012B21D0002B88
:102D300036D12E4B1A6A01218A431A621A6A03316C
:102D40008A431A621AE00025EAE72B4A11688023B9
:102D50005B000B431360FEF773FD0600264B1B68F8
:102D6000DB05E1D4FEF76CFD801B6428F6D9032057
:102D700052E11E4A136A01210B431362A368002B20
:102D800024D0FEF75DFD0600184B1B6A9B0737D465
:102D9000FEF756FD801B194B9842F5D903203BE105
:102DA000052B09D0114B1A6A01218A431A621A6A4B
:102DB00003318A431A62E1E70C4B1A6A04210A4381
:102DC0001A621A6A03390A431A62D7E7FEF738FD16
:102DD0000600064B1B6A9B0712D5FEF731FD801BD0
:102DE000064B9842F5D9032016E1C0460010024078
:102DF000FFFFFEFFFFFFFBFF007000408813000095
:102E0000012D39D02368DB0610D56369012B39D039
:102E1000053357D1894A536B04218B435363536B5A
:102E2000F4318B43A169C9000B43536323689B06AC
:102E30006ED5824B5A680C2313400C2B60D07F4B0D
:102E40005A680C231340082B53D0236A002B7ED0E2
:102E50007A4A516B80235B020B435363FEF7F0FC0D
:102E60000500764B5B6B9B0352D4FEF7E9FC401BDD
:102E70000228F6D90320CFE0704AD36970490B408D
:102E8000D361BFE76D4B5A6B04210A435A635A6BF7
:102E900003390A435A63FEF7D3FC0500674B5B6BAB
:102EA0009B0706D4FEF7CCFC401B0228F6D9032072
:102EB000B2E062494B6BF8229343A269D2001343FC
:102EC0004B63B3E75D4B5A6B04210A435A635A6B59
:102ED00003398A435A63FEF7B3FC0500574B5B6B1B
:102EE0009B07A3D5FEF7ACFC401B0228F6D90320B4
:102EF00092E0524B5B68C022520213409342A4D12D
:102F00004E4B5B6B9B0303D5236A012B00D089E0FA
:102F1000636A002B00D187E0484A51680C220A40BE
:102F2000082A60D0022B25D0444A136845490B403B
:102F30001360FEF785FC0400404B1B689B0150D5D5
:102F4000FEF77EFC001B0228F6D9032064E03B4A12
:102F5000536B3D490B405363FEF772FC0500374B42
:102F60005B6B9B03D4D5FEF76BFC401B0228F6D9A4
:102F7000032051E0314A136832490B401360FEF7D9
:102F80005FFC05002D4B1B689B0106D5FEF758FC26
:102F9000401B0228F6D903203EE0284BDA6A0F21B5
:102FA0008A43216B0A43DA625A6828490A40E16A77
:102FB000A06A01430A435A601968802252040A43F6
:102FC0001A60FEF73DFC04001C4B1B689B0106D4F5
:102FD000FEF736FC001B0228F6D903201CE0002077
:102FE0001AE0002018E0012B20D0144B5A68D96A4F
:102FF000C0235B021340A06A834219D10F230B4008
:10300000216B8B4216D1F0239B031A40E36A9A424C
:1030100012D1002000E0012002B070BD0120FBE7CA
:103020000120F9E70120F7E70020F5E70120F3E7A9
:103030000120F1E70120EFE70120EDE70010024059
:10304000FFFFFFEFFFFFFFFEFFFFFEFFFF7FC2FF5F
:1030500010B5184B5A680C231340082B03D00C2BC7
:1030600025D1154810BD910C0F2319401348445C1D
:103070001049C96A0B401249C95CC0235B021A405F
:1030800080235B029A4208D0C0235B029A4209D097
:103090000C48FDF739F86043E4E70A48FDF734F8D7
:1030A0006043DFE70448FDF72FF86043DAE705489F
:1030B000D8E7C04600100240006CDC02703D0008FA
:1030C000803D000800127A0070B504000D00002851
:1030D00000D186E0474B1A68012313408B420AD285
:1030E00044490B68012293432B430B600B681A4041
:1030F000AA4200D077E023689A070ED55B0705D572
:103100003D4A5168E023DB000B4353603A4A536861
:10311000F0218B43A1680B4353602368DB0735D54F
:103120006368012B09D0022B24D0032B28D0324A0C
:103130001268920705D4012052E02F4A12689203C8
:1031400053D52D494A680320824313434B60FEF751
:1031500077FB0600284B5B680C221A4063689B00D3
:103160009A4213D0FEF76CFB801B244B9842F1D996
:10317000032035E0204A12689201E2D401202FE0BA
:103180001D4A526B9203DCD4012029E0194B1A68C6
:1031900001231340AB4209D916490B68012293431E
:1031A0002B430B600B681A40AA4220D123685B07AF
:1031B00006D5114A536812490B40E1680B4353602E
:1031C000FFF746FF0C4B5A6812090F2313400D4AB4
:1031D000D35CD8400C4B18600020FEF7EDFA0020BD
:1031E00070BD0120FCE70120FAE70120F8E701208B
:1031F000F6E7C0460020024000100240881300009D
:10320000FFF8FFFF603D00080000002070B582B0AD
:1032100004000368DB0337D5474BDB69DB005DD473
:10322000454AD169802040050143D161D3690340FB
:103230000193019B0125414B1B68DB0550D53E4B9B
:103240001A6AC0239B00110019401A4213D0626809
:1032500013408B420FD0384B186A394A02401E6A1D
:103260008021490231431962196A364E3140196290
:103270001A62C30748D4304A136A31490B40616867
:103280000B431362012D4ED02368DB0706D52A4A73
:10329000136B03218B43A1680B43136323689B06C5
:1032A00006D5254A136B10218B43E1680B4313634A
:1032B00023689B0306D5204A136B80218B436169E9
:1032C0000B43136323685B0532D51B4A136B402104
:1032D0008B4321690B43136300202AE00025AAE7F2
:1032E000164A116880235B000B431360FEF7A8FAAF
:1032F0000600124B1B68DB05A1D4FEF7A1FA801B68
:103300006428F6D9032014E0FEF79AFA06000A4B67
:103310001B6A9B07AFD4FEF793FA801B0A4B9842B7
:10332000F5D9032005E0D36908490B40D361ABE729
:10333000002002B070BDC046001002400070004086
:10334000FFFCFFFFFFFFFEFF88130000FFFFFFEF02
:1033500030B5036A026A0124A243026242688469AA
:103360007325AC430D682C430225AB438D682B437A
:10337000114DA84205D0114DA84202D0104DA842CF
:1033800005D10825AB43CD682B430425AB430A4D3B
:10339000A84205D0094DA84202D0094DA84205D146
:1033A000084D2A404D692A438D692A434260846151
:1033B0004A684263036230BD002C01400044014072
:1033C00000480140FFFCFFFF70B5036A026A184C19
:1033D000224002624468C2697325AA430E681643FC
:1033E000144A13408A6812021343134A904216D0BB
:1033F000114A904205D0114A904202D0104A9042A0
:1034000007D1104A22404C69240114438A691501EE
:103410002C434460C6614A68C263036270BD0A4AB5
:103420001A40CB681B021343084A1340E0E7C0462A
:10343000FFFEFFFFFFFDFFFF002C014000440140A5
:1034400000480140FFCFFFFFFFF7FFFFFFFBFFFF3B
:1034500030B5036A026A114C224002624568C269B3
:103460000F4C22400C68240222430E4C1C408B68F7
:103470001B0323430C4CA04205D00C4CA04202D0AD
:103480000B4CA04204D10B4C25404C69A4012543B0
:103490004560C2614A680264036230BDFFEFFFFF0E
:1034A000FF8CFFFFFFDFFFFF002C014000440140C5
:1034B00000480140FFBFFFFF7047704770477047EB
:1034C000704770B504000368DE681D69AA070ED551
:1034D000B2070CD5032252421A6101230377036815
:1034E0009B699B0751D0FFF7E9FF002323776B0708
:1034F00012D5730710D52368052252421A610223A0
:10350000237723689A69C0239B001A4243D0200086
:10351000FFF7D4FF002323772B0710D533070ED5F1
:103520002368092252421A61042323772368DB6946
:103530009B0737D02000FFF7C1FF00232377EB065E
:1035400012D5F30610D52368112252421A610823BE
:1035500023772368DA69C0239B001A4229D0200010
:10356000FFF7ACFF00232377EB0701D5F30727D440
:103570002B0601D533062BD46B0601D573062FD449
:10358000AB0601D5B30633D470BDFFF796FF20001C
:10359000FFF795FFA9E72000FFF78FFF2000FFF757
:1035A0008EFFB7E72000FFF788FF2000FFF787FFB7
:1035B000C3E72000FFF781FF2000FFF780FFD1E77E
:1035C0002368022252421A612000FFF775FFCFE7FD
:1035D0002368812252421A61200000F0A4F9CBE74F
:1035E0002368412252421A612000FFF769FFC7E7B2
:1035F0002368212252421A61200000F093F9C3E7A8
:103600000368214A904206D08022D205904202D01F
:103610001E4A904203D1702293434A6813431A4AC8
:1036200090420FD08022D20590420BD0174A904290
:1036300008D0174A904205D0164A904202D0164A46
:10364000904203D1154A1340CA6813438022934322
:103650004A69134303608B68C3620B6883620A4B39
:10366000984205D00B4B984202D00B4B984201D1A7
:103670000B690363012343610269134203D00369A9
:103680000122934303617047002C01400004004075
:10369000002000400044014000480140FFFCFFFFC3
:1036A00070B5041E26D03D23C35C002B1CD03D25E5
:1036B00002236355210001C9FFF7A2FF012346221F
:1036C000A354083AA3540132A3540132A354013243
:1036D000A3540132A3540132A3540132A354013242
:1036E000A3546355002070BD3C330022C254FDF743
:1036F00043FFDCE70120F6E770B5041E26D03D232A
:10370000C35C002B1CD03D2502236355210001C959
:10371000FFF776FF01234622A354083AA35401324F
:10372000A3540132A3540132A3540132A3540132F1
:10373000A3540132A3540132A3546355002070BD39
:103740003C330022C254FDF701FFDCE70120F6E71D
:1037500030B5036A026A1024A24302624568846994
:10376000164A14400A6812021443202293438A68BE
:1037700012011343124A904216D0114A904205D0CA
:10378000104A904202D0104A904207D10F4A2A4074
:103790004D69AD0015438A69920015434560846107
:1037A0004A688263036230BD802293431A00CB686B
:1037B0001B01134340229343DFE7C046FF8CFFFF0A
:1037C000002C01400044014000480140FFF3FFFF8E
:1037D00070B504000D003C23C35C012B00D16AE0EE
:1037E0003C230121C154082A50D01CD8002A38D0CB
:1037F000042A16D129000068FFF7AAFF2268916900
:1038000080231B010B439361226893692B490B4072
:10381000936121688B692A69120213438B6100202E
:103820001BE0080019E00C2A16D129000068FFF7F8
:103830000FFE2268D16980231B010B43D3612268EC
:10384000D3691E490B40D3612168CB692A691202F2
:103850001343CB61002000E001203C230022E2540E
:1038600070BD29000068FFF773FD22689369082185
:103870000B4393612268936904398B4393612268F7
:10388000936929690B4393610020E6E729000068EA
:10389000FFF79AFD2268D36908210B43D3612268A0
:1038A000D36904398B43D3612268D36929690B43F7
:1038B000D3610020D1E70220D2E7C046FFFBFFFF23
:1038C00030B53C23C35C012B25D03C230122C254DC
:1038D00001330132C25403685A689C687025AA43B8
:1038E0000D682A435A6003680C4A934206D080222E
:1038F000D205934202D00A4A934204D180229443D3
:103900004A6814439C603D230122C254013B0022BB
:10391000C254002030BD0220FCE7C046002C01400C
:10392000000400407047704770B582B001AB0022C0
:103930001A705A7001329A70DA70FDF701FF01AB0C
:1039400001221A703024224D06E00020FDF7ECFE23
:103950002870013CA4B20135002CF6D11C4B1B7819
:10396000012B01D102B070BD19491A4B0A0023CBBB
:1039700023C223CB23C223CB23C223CB23C201AB3D
:103980001B78002B02D03025114B0FE0FDF7D8FE3D
:1039900001AB01221A70F6E75E1C19782000FDF7D2
:1039A000C9FE013DADB20134A4B23300002DF3D104
:1039B00001AB9B78002B03D101AB01225A70D1E7F8
:1039C000FDF7CAFE01AB00225A700132DA70C9E776
:1039D000F0090020303D0008062010B500F0D2F8B4
:1039E0000120FDF791FDC046014B18687047C046A5
:1039F0000C00002070B50C4D0C4E761BB61005D097
:103A0000002408CD01349847A642FAD100F084F989
:103A1000074D084E761BB61005D0002408CD0134A2
:103A20009847A642FAD170BDAC3E0008AC3E0008F3
:103A3000AC3E0008B43E0008F0B5C64600B50F2AFB
:103A400041D903270D003E0005430C0003002E4022
:103A50002F423DD11500103D2D09A8462D01AC4641
:103A6000844427681D001F6067685F60A7689F60C7
:103A7000E7681034DF6010336545F2D145460F2307
:103A80000C2401352D01491913404519144222D047
:103A90008C59AC5104369C1B032CF9D8043B9B0871
:103AA00001339B00ED18C91803231A40561E002A43
:103AB00006D00023CC5C1A00EC5401339642F9D1B5
:103AC00080BCB846F0BD0500561E002AF1D1F7E7CC
:103AD0000500561EEDE71A00F6E7C046F0B50500F2
:103AE000830749D0541E002A45D003000326CAB2DA
:103AF00002E00135013C3ED301332A703342F8D154
:103B0000032C30D9FF220A40150215432A0415431D
:103B10000F2C34D92700103F3F093E01B4461E0048
:103B20001A0010366644156055609560D5601032F5
:103B3000B242F8D101373F01DB190F270C22274091
:103B400022403C00002A0ED03E1FB608B400A44616
:103B50001A001C1D644420C2A242FCD10324013679
:103B6000B6009B193C40002C05D0C9B21C19197035
:103B700001339C42FBD1F0BD03001400C0E72700D5
:103B8000E2E7C046164B70B504001D681F2821D817
:103B9000B7239B00EB58002B0DD082009B181A68AE
:103BA000002A08D0012A13D0511C0DD00021196021
:103BB0009047002070BD280000F028F82200010086
:103BC000280000F00FF8F5E7162301202B60F1E73D
:103BD0000020EFE7162301202B604042EAE7C046B1
:103BE0000C000020002370B5074D040008001100F0
:103BF0002B60FDF781FC431C00D070BD2B68002BAF
:103C0000FBD02360F9E7C046240A002010B5FDF779
:103C100071FC10BD034B10B5002B02D0024800F020
:103C200005F810BD000000003D3C000810B5010083
:103C300000230022002000F019F810BD70B5074DD8
:103C4000074C641BA41005D0013CA300EB58984717
:103C5000002CF9D100F066F870BDC046B43E0008F3
:103C6000B83E00087047C0467047C046F0B5D6461B
:103C70004F464646C0B5264F82B006003868924689
:103C800098468946FFF7EEFF224B1B680193A42359
:103C9000019A5B00D558002D2ED06C681F2C30DCAB
:103CA000002E0FD1631C6B604B460234A4003868B1
:103CB0006351FFF7D9FF002002B0E0BCBA46B1461D
:103CC000A846F0BD882251462800A300EB18995061
:103CD000873AA2408930FF30016811430160842196
:103CE000404649005850022EDCD12B008D33FF3363
:103CF00019680A431A60D5E715004D35FF35D550D0
:103D0000CBE73868FFF7B0FF01204042D4E7C04658
:103D100038040020903D0008F8B5C046F8BC08BC47
:103D20009E467047F8B5C046F8BC08BC9E46704732
:103D3000010C00000000B4420000003F0000000041
:103D4000FA00B80B000000000000344300002041DE
:103D500000000000000000000000484200000000D9
:103D6000000000000000000001020304060708092B
:103D700002030405060708090A0B0C0D0E0F1010AC
:103D80000102030405060708090A0B0C0D0E0F10AB
:043D900010000020FF
:103D940074B20181B0AB3080000000008008018162
:103DA400B0B0ABF0000000003F020181B0AB308046
:103DB4000000000080060181B0B0ABF000000000FC
:103DC4005CC4FF7F0100000008C5FF7FB0A902802A
:103DD4009CC5FF7FB0B0A880F0C5FF7F0100000044
:103DE400FCC5FF7FB0B0AA8030C6FF7FA4FFFF7F71
:103DF400F8C6FF7F01000000F4C6FF7FAA3F3980A8
:103E040040C7FF7FB0B0A8804CC7FF7FB0B0AA8086
:103E14008CC7FF7FB0B0A880A0C7FF7F010000005F
:103E24009CC7FF7FB0B0A880A4C7FF7F010000003B
:103E340034C8FF7FAA0FB2809CC8FF7F60FFFF7F5A
:103E440080CBFF7FB0B0A8809CCBFF7F5CFFFF7F5F
:103E5400FCCDFF7F010000006CCFFF7F0084048055
:103E64007CCFFF7FB0B0A8807CCFFF7F48FFFF7F6F
:103E740064D2FF7F0084048084D2FF7FB0B0A88026
:103E84009CD2FF7F01000000CCD8FF7FB0A9068040
:103E940024D9FF7F010000008CFAFF7FB0AA0180C3
:083EA40034FBFF7F0100000068
:083EAC00153C0008E9000008C4
:043EB400C100000841
:103EB80000127A0001000000040000001000002039
:103EC80000000000FC02002064030020CC03002056
:103ED80000000000000000000000000000000000DA
:103EE80000000000000000000000000000000000CA
:103EF80000000000000000000000000000000000BA
:103F080000000000000000000000000000000000A9
:103F18000000000000000000000000000000000099
:103F28000000000000000000000000000000000089
:103F38000000000000000000000000000000000079
:103F48000000000000000000000000000000000069
:103F58000000000000000000000000000000000059
:103F68000000000000000000010000000000000048
:103F78000E33CDAB34126DE6ECDE05000B0000000D
:103F88000000000000000000000000000000000029
:103F98000000000000000000000000000000000019
:103FA8000000000000000000000000000000000009
:103FB80000000000000000000000000000000000F9
:0C42E8000000000000000000200A002080
:04000005080016A534
:00000001FF
