:020000040800F2
:1000000000180020212500080D2300080F230008F8
:1000100000000000000000000000000000000000E0
:100020000000000000000000000000001123000894
:100030000000000000000000132300081523000842
:10004000A1250008A1250008A1250008A125000878
:10005000A1250008A1250008A1250008A125000868
:10006000A12500081D230008A1250008A1250008DE
:100070002D230008A1250008A1250008A1250008BE
:10008000A125000800000000000000003D2300083A
:1000900000000000A1250008A12500084D2300084C
:1000A00000000000A1250008A1250008A1250008E6
:1000B000A125000800000000A1250008A1250008D6
:1000C00010B5064C2378002B07D1054B002B02D02E
:1000D000044800E000BF0123237010BD400400204D
:1000E0000000000078600008044B10B5002B03D01E
:1000F0000349044800E000BF10BDC04600000000F6
:100100004404002078600008002243088B4274D326
:1001100003098B425FD3030A8B4244D3030B8B4208
:1001200028D3030C8B420DD3FF22090212BA030C11
:100130008B4202D31212090265D0030B8B4219D3F2
:1001400000E0090AC30B8B4201D3CB03C01A524112
:10015000830B8B4201D38B03C01A5241430B8B425A
:1001600001D34B03C01A5241030B8B4201D30B0343
:10017000C01A5241C30A8B4201D3CB02C01A52416A
:10018000830A8B4201D38B02C01A5241430A8B422D
:1001900001D34B02C01A5241030A8B4201D30B0216
:1001A000C01A5241CDD2C3098B4201D3CB01C01A30
:1001B000524183098B4201D38B01C01A524143093A
:1001C0008B4201D34B01C01A524103098B4201D328
:1001D0000B01C01A5241C3088B4201D3CB00C01A95
:1001E000524183088B4201D38B00C01A524143080D
:1001F0008B4201D34B00C01A5241411A00D2014632
:10020000524110467047FFE701B5002000F006F8A4
:1002100002BDC0460029F7D076E770477047C04658
:10022000844608006146FFE71FB500F06DFB00281B
:1002300001D40021C8421FBD10B500F0F9FA4042B8
:10024000013010BD10B500F05FFB002801DB00207D
:1002500010BD012010BDC04610B500F055FB0028B0
:1002600001DD002010BD012010BDC04610B500F01A
:1002700005FB002801DC002010BD012010BDC04698
:1002800010B500F0FBFA002801DA002010BD0120B3
:1002900010BDC0469E2110B5C905041CFFF7F0FF34
:1002A000002803D1201C00F047FE10BD9E21201C19
:1002B000C90500F093FC00F03FFE80231B069C461E
:1002C0006044F2E7F0B5C64643025B0A4E024500C1
:1002D0004F00DA00C40F9C46700A904600B52D0E00
:1002E0003F0EC90FB6098C424BD0EA1B002A36DDFF
:1002F000002F61D0FF2D00D1ADE08023DB041E4331
:100300001B2A00DCD3E001204346181A430100D425
:100310008CE080018709380001F0F0FD0538874046
:10032000854200DCB6E02D1AB3483840430704D0BC
:100330000F230340042B00D00430430100D478E0A5
:100340006A1CFE2D65D08001430A9C46D2B26346EA
:10035000D0051843E407204380BCB846F0BD002A0E
:1003600035D07A1B002D00D0AFE04346002B00D1E2
:10037000A7E0531E012A00D12FE1FF2A69D01A00FD
:10038000AAE0E91B002970DD002F37D0FF2D62D0D5
:100390008023DB041E431B2900DCB0E00120404425
:1003A000430143D50135FF2D33D00123934A034048
:1003B000400810401843B9E7002E00D183E0511ED9
:1003C000012A00D1D8E0FF2A45D00A0098E7FE278D
:1003D0006A1C174200D086E0002D00D0B7E04346EB
:1003E000002B00D1F3E00022002EB0D0981B430177
:1003F00000D4FAE043460C00F01A97E7002E00D133
:10040000C8E04A1E012900D1AEE0FF2923D0110027
:10041000C1E70023FF229C4699E7FE216A1C114296
:1004200077D0FF2AF5D0150046447008430700D066
:100430007EE7C308FF2D0ED05B025B0A9C46EAB242
:1004400085E7002E07D08022D203134203D010424A
:1004500001D10C000300002BDBD08020C003184327
:100460004002430A9C46FF2271E70029D5D07A1B3F
:10047000002D60D14346002B24D0531E012A73D097
:10048000FF2AE7D01A001B2A00DC85E001203D008E
:10049000801985E720233A00451B38000135EA40E2
:1004A0005D1BA840431E9841002510433EE72023D2
:1004B00030009B1A31009840D140431E98410843B8
:1004C00022E70C0003001500B4E7FF2FC1D0802302
:1004D0004046DB04184380461B2A51DD01200C00F6
:1004E0003D00301A12E743469F1B7B012BD4002F9F
:1004F00000D010E70023002400229C4627E7202399
:1005000032003000CA40591A8840431E98411043B7
:1005100045E7002D4AD14346002B63D00022002E30
:1005200000D114E730004044430100D47EE7324B51
:10053000013518407AE7FF2F8CD080234146DB0439
:10054000194388469FE743460C00F71AE3E6424604
:10055000002A00D075E7002E00D07AE78023DB0365
:1005600000249C46FF22F2E630004044012543016E
:1005700000D45BE7022518E743460125981BC5E632
:10058000202344464046D4409A1A9040431E984146
:100590002043A4E70D004DE7202341464046D140CB
:1005A0009A1A9040431E9841084370E74246002A39
:1005B00000D14FE7002E00D14DE78022D203134235
:1005C00000D148E7104200D045E7030043E7002E82
:1005D00090D00C0084460022B9E643460C00F01A85
:1005E000013593E684460022B1E6002800D01DE7DD
:1005F000002300249C46AAE6FFFFFFFBFFFFFF7DD0
:10060000F0B54F464646D6464502C0B547000C1CDD
:100610006D0A3F0EC60F002F00D170E0FF2F00D1F2
:1006200075E0EB008025ED041D43002399469A46B2
:100630007F3F6002430A984663001B0EE40F002BC5
:100640004ED0FF2B46D04246D0008022D204024337
:10065000904600227F3B3100FF1A4B466140C9B2F1
:1006600013430F2B00D9B5E06E489B00C3589F463B
:10067000002398462600454692465346022B00D159
:1006800089E0032B00D19EE0012B18D03B007F3383
:10069000002B69DD6A0704D00F222A40042A00D00B
:1006A00004352A0103D5604B1D403B008033FE2BEF
:1006B00000DD70E0AD016D0AD8B202E00E0000204E
:1006C0000025C0052843F6073043E0BCBA46B146D2
:1006D000A846F0BD4346002B3FD10222FF3F03E076
:1006E0004346002B2DD1012231004B466140C9B257
:1006F00013430F2B34D84D489B00C3589F46002D01
:1007000013D104239946033B00279A4691E7002D15
:1007100005D108239946063BFF279A4689E70C2313
:100720009946093BFF279A4683E7280001F0E6FB3C
:100730007627431F9D4000237F4299469A463F1AE1
:1007400077E7404601F0DAFB4246431F9A407623A2
:100750005B4290461B1A00227DE7FF2303227AE7C3
:100760000E00FF200025ACE70120C01A1B28A6DCE4
:100770009E372A00BD40C2406B1E9D4115436B074A
:1007800004D00F232B40042B00D004356B0144D53B
:100790000120002595E7FF20002592E7802500260F
:1007A000FF20ED038DE7002398468020C00305421B
:1007B00009D04346034206D1454605436D02260053
:1007C000FF206D0A7DE78020C00305436D02FF20F6
:1007D0006D0A76E742466B015001834219D21B2213
:1007E0000025013F01261C006D005B00002C01DB91
:1007F000984201D81B1A3543013A002AF3D15A1EF8
:1008000093411D433B007F330E00002B00DD41E789
:10081000AAE71A2201251B1AE4E7AD0100206D0AA0
:100820004FE7C046C0600008FFFFFFF70061000807
:1008300070B5420045024E024C00C30F6D0A012004
:10084000120E760A240EC90FFF2A06D0FF2C03D001
:10085000A24201D1B54206D070BD002DFCD1FF2CC3
:10086000FAD1002EF8D18B4206D00120002AF3D114
:100870002800431E9841EFE70020EDE770B54200E5
:1008800045024E024C00C30F6D0A120E760A240E6A
:10089000C80FFF2A1BD0FF2C0ED0002A1BD1002C22
:1008A00001D1002E1CD0002D0CD083421CD002217F
:1008B000581E0840013870BD002E22D1002AF4D104
:1008C000002DF2D10028F6D101204042F3E7002D9F
:1008D00017D1FF2CF0D0002CE7D1002EE5D1E6E7B0
:1008E0000020002DE7D0E2E7A24205DCEADBB542BA
:1008F00002D8E7D30020DEE74342584140000138E8
:10090000D9E702204042D6E770B5420045024E02C8
:100910004C00C30F6D0A120E760A240EC80FFF2A70
:100920000BD0FF2C0DD0002A1FD1002C16D1002E89
:1009300014D10020002D10D009E0002D0CD1FF2C87
:1009400013D1002E08D1002A08D0834212D00221F0
:10095000581E0840013800E0022070BD002DF4D17F
:100960000028FAD101204042F7E7002CEDD1002EFB
:10097000EBD1ECE7A24205DCF2DBB54202D8EFD3C3
:100980000020EAE74342584140000138E5E7C0460D
:10099000F0B54F464646D64644024500C0B5640A07
:1009A0000F1C2D0EC60F002D00D18DE0FF2D00D1A4
:1009B00092E00023802099469A46E400C004044354
:1009C0007F3D7802430A98467B001B0EFF0F002BE9
:1009D00000D170E0FF2B00D186E04246D00080229B
:1009E0007F3BED180023D204024390469C46310021
:1009F0004B467940681C0F2B1CD8764A9B00D35875
:100A00009F4639004446E2465346022B0FD0032B43
:100A100000D1D7E0012B37D100200024C0052043AE
:100A2000C9070843E0BCBA46B146A846F0BDFF205E
:100A30000024F3E7260C2404220C44462404240C4E
:100A4000434627001B0C574374435A435E43121915
:100A50003B0C9B189C4203D9802252029446664468
:100A60003F041A043F0CD2199401671EBC411B0CB1
:100A7000920E9B1914439B011C431B0100D49BE065
:100A8000012362081C40144302007F32002A64DD07
:100A9000630704D00F232340042B00D00434230128
:100AA00003D502004C4B80321C40FE2ABFDCA4015F
:100AB000640AD0B2B2E74346002B3DD14A46013327
:100AC0001A4391469C4692E7002C29D1042399466B
:100AD000033B00259A4674E7002C1BD10823994656
:100AE000063BFF259A466CE74346FF35002B0BD1AA
:100AF00002234A461A4391469C4678E75346310002
:100B0000022B00D083E792E703234A461A4391461B
:100B10009C466CE70C239946093BFF259A4650E713
:100B2000200001F0EBF97625431F9C4000236D4225
:100B300099469A462D1A44E7404601F0DFF94246AD
:100B4000431F9A4000232D1A90469C46763D4EE75F
:100B500080240021FF20E40360E701239B1A1B2B64
:100B600000DD59E722009E30DA4084401300621E07
:100B700094411C43630704D00F232340042B00D06F
:100B8000043463011AD50120002447E78020C00304
:100B9000044209D04346034206D14446044364025A
:100BA0003900FF20640A39E78020C003044364024F
:100BB0003100FF20640A31E7280065E7A401002026
:100BC000640A2BE78020C00304436402FF20640A08
:100BD00024E7C04640610008FFFFFFF7F8B5CE46A6
:100BE000474643025B0A4E02DA009446720A914677
:100BF00045004A0080B52D0E1F00C40F120EC90F0C
:100C0000B609FF2A5BD0012041408C4239D0A81A96
:100C100000285ADD002A6AD0FF2D00D1D9E08022B9
:100C2000D20416431B2800DCE9E001206346181AB1
:100C3000430100D4B4E080018709380001F05EF977
:100C400005388740854200DCCCE02D1AB548384095
:100C5000430704D00F230340042B00D0043043018A
:100C600000D4A0E06A1CFE2D00D18DE08001470A6F
:100C7000D2B2D0053843E4072043C0BCB946B046E1
:100C8000F8BDA81A8046002845DD002A70D0FF2D47
:100C900000D19EE08023DB041E4343461B2B00DC77
:100CA000D2E00120604443017AD50135FF2D6BD09D
:100CB00001239D4A0340400810401843C8E7002E16
:100CC00020D08C4223D02800FF38002839D0571B71
:100CD000002D00D09DE06346002B00D1DBE07B1EA1
:100CE000012F00D10DE1FF2F71D01F0098E0002EE1
:100CF00000D1A7E0421E012800D1E6E0FF2868D01D
:100D000010008FE701204140A14200D07FE7FF2083
:100D100040428046A8444046002838D0511B002D50
:100D200000D1AEE0FF2A00D1DFE080236046DB0483
:100D3000184384461B2900DCD9E0012015008019E6
:100D4000B1E7FE206A1C104271D1002D00D0A6E050
:100D50006346002B00D1D9E00022002E00D188E7A5
:100D6000981B430100D4E1E063460C00F01A6FE7E2
:100D7000002E00D1B7E00200013A012800D19CE02A
:100D8000FF2826D0904688E7FF22002771E7FE2043
:100D90006A1C104264D0FF2AF6D015006644700821
:100DA000430700D056E7C308FF2D12D05B025F0A4D
:100DB000EAB25EE76246002A00D196E0002E08D033
:100DC0008022D203134204D04846104201D10C00C5
:100DD0004B46002BD8D08027FF031F437F02FF2202
:100DE0007F0A46E720233A00451B38000135EA40D8
:100DF0005D1BA840431E98410025104328E720238F
:100E00001B1A32009E40C2403000431E98411043DE
:100E10000CE7FF2ADBD080236046DB0418438446BE
:100E20001B2F56DD01200C001500301A00E7634629
:100E30009F1B7B013DD4002F00D0FEE60024002242
:100E4000002716E70500AFE7320043464146DA4087
:100E500020235B1A9E403000431E9841104321E737
:100E6000002DA7D16346002B59D00022002E00D1BF
:100E7000FFE630006044430192D52A4B013518400B
:100E80008EE76346002B47D04B1E012915D0FF2962
:100E90002BD019004EE70C004B463D0084E762461C
:100EA000002A8BD1002E92D180270024FF22FF033D
:100EB000DFE663460C00F71ABFE630006044012508
:100EC000430100D46CE70225F2E663460125981B36
:100ED000AEE6202364466046FC40DF1BB840431E5C
:100EE000984120439FE705005EE74B4671E72023CA
:100EF00065466046CD40591A8840431E98412843B4
:100F00001CE763460C000125F01A91E6002E95D0EF
:100F10000C004F460022ACE64B460D0044E74F461E
:100F20000022A6E6FFFFFFFBFFFFFF7D002800D0A9
:100F300036E7002400279CE641024200C30F490A1D
:100F40000020120E7E2A03DD9D2A02DD094A981830
:100F50007047802000040143952A07DC9620821AFE
:100F6000D1404842002BF3D10800F1E7963A914076
:100F7000F7E7C046FFFFFF7F70B5051E0ED000F0FB
:100F8000BDFF9E2304001B1A962B0CDC082801DDF4
:100F9000083CA5406D026D0AD8B201E00020002592
:100FA000C005284370BD992B09DD020029001B32C2
:100FB00091404A1E91410522121AD5400D43052C3D
:100FC00012DC29000C4E31406A0709D00F2028405E
:100FD000042805D004314A0102D59F2331401B1B50
:100FE00089014D0AD8B2DBE7621F95402900024E05
:100FF00031406A07F4D0E9E7FFFFFFFB03685A00BE
:1010000004D5802212061343C01870475B005B08AA
:10101000FAE7C046F8B557464546DE464E46904686
:10102000E0B50700002924D04B1E9A4699460023BC
:101030009B465B464B44DC0FE4186410E5007E19C8
:101040003000FFF7DBFFA2450CD040450CD828004C
:1010500008303818FFF7D2FF013840450AD2631C28
:101060009B46E6E7404505D9A34502D0631E994655
:10107000DFE700263000F0BCBB46B246A946A046DA
:10108000F8BDC0460300012805D0022807D0002083
:10109000002B02D070470348FCE70348FAE70348F7
:1010A000F8E7C046AD170008A1170008B9170008F7
:1010B00030B5234B050083B08C1E002B26D02000BA
:1010C00001A900E000BF00281CD001992200FFF711
:1010D000A1FF041E16D0FFF791FF6368A864012BDF
:1010E0002AD0201D002B23DBFFF788FF0023E864B4
:1010F0002B650368002B0FDBFFF780FF28610020C2
:1011000003B030BD002309202B61F9E70D480E49DB
:10111000091AC9100191D9E71801000FFFF7B2FFB2
:101120002861431E98410823404298430930E7E76D
:101130000123E8642B65DCE7002305202B61DFE752
:1011400000000000846200087C630008036810B59A
:101150000400DA0705D49B070AD5483000F080FC6C
:1011600023685A070AD51A070FD5DB0615D510BD17
:10117000483000F071FC23685A07F4D42000D030C6
:1011800000F072FC23681A07EFD420005130FF30C2
:1011900000F06EFC2368DB06E9D42000D130FF307C
:1011A00000F06AFCE3E7C0460920704703000068CE
:1011B000002800D0C01870477047C04670B50400C2
:1011C0000D002000296CFFF773FF002811D12B6C54
:1011D0002A00636121000120236998470828F0D084
:1011E000072806D10020296CFFF7E6FF281D00F034
:1011F0001DFC04F0A1FDC046F0B5CE46474680B5C3
:10120000C368304C9846A544836904001600043135
:10121000402205A8994604F0BFFD0023049325E071
:10122000F022149B5200636104A97CA8039304F08C
:10123000B3FD2100280023697CAA98478A9B0500FA
:10124000039315934B46019304AB009322002300B4
:1012500031000120C047002822D1F0227CA9520091
:1012600004A804F099FD0026082D22D1149B20002B
:1012700019000393FFF71CFF09360700F5B2002899
:10128000CED0129B1021039315934B46019304ABD0
:1012900000932200230001202943C047002800D0EA
:1012A00009273800F5239B009D44C0BCB946B046D1
:1012B000F0BD072DF4D130001499FFF77DFF05A88C
:1012C00000F0B4FB2CFCFFFF406C704770B5CB6B9B
:1012D000FAB00B6405000E004022043103A804F0AC
:1012E0005BFD01235B42029306E029002B6902AA01
:1012F0009847040008280AD1129B2800190001937E
:10130000FFF7D6FE0028F0D009207AB070BD02A801
:10131000FFF71CFF062CF7D131002800FFF74EFF26
:1013200010B58261DA6BC1601A6419000022FFF700
:1013300063FF10BD436970B50B64C36804000D0002
:10134000002B13D10A0023690100022098470728C7
:1013500005D008280FD129002000FFF72FFF00201B
:10136000296CFFF729FF281D00F060FB0122FFF721
:1013700043FF04F0E1FC04F0DFFCC046C36810B595
:10138000002B05D0CB6B00220B64FFF735FF10BD9F
:10139000FFF79CFFFBE7C0467047C046836801002B
:1013A00010B5002B01D00120984710BD012915D0A0
:1013B0000AD8002B10D10F2A0ED89200821852683A
:1013C000009B00201A6006E001200339C9B2884260
:1013D00080414042013070470220FCE70120FAE7DB
:1013E00000B585B003AB0A00009300210023FFF78E
:1013F000DDFF039805B000BD012915D00AD8002BE8
:1014000010D10F2A0ED8009B92001B6882185360DF
:10141000002006E001200339C9B2884280414042E1
:10142000013070470220FCE70120FAE700B585B0E3
:1014300003AB039200930A0000230021FFF7DCFFB7
:1014400005B000BD70B51A4CD36BA54413640500FC
:101450000C0019A8111D402204F09EFC01235B42E0
:10146000189314E00C2118A802AAFFF7DFFF21004F
:1014700018A8A847002812D1069B18AA02A908306C
:1014800001939847060005280AD0092807D0289B11
:1014900002A819000193FFF70BFE0028E2D00926ED
:1014A00018A8FFF753FE300090239B009D4470BDA9
:1014B000C0FDFFFFF0B557469246032245464E4613
:1014C000DE4699461300E0B58846CD6C494689B0A2
:1014D0000340009308CD0695002900D180E01A0C46
:1014E0001B040593022304A90B73FD3313409B00D7
:1014F0004A73ED18009B022B01D143469D6B434676
:101500001B6DDB070FD5504605A900F05BFB0028DB
:1015100001D1082000E0092009B0F0BCBB46B2466A
:10152000A946A046F0BD2F68002FECD00823034049
:10153000029300230193013354469B464646BA4624
:101540004B46022B49D02B886F889A4604355A4661
:101550003B009343B26C0F21904620009844FFF764
:101560003FFF0023804506D853465A4693434344E1
:1015700098429B415B4202227F00174059465246E7
:101580000A401743012F30D0022F4CD0002FC2D178
:10159000009A002A02D0002B00D09BE004352B6873
:1015A0009A46002BCCD1200005A9A24600F00AFBE8
:1015B0000028B0D1019B002BABD00F215046FFF784
:1015C0000FFF0E2102005046FFF730FF50460F215B
:1015D000724AFFF72BFF07209EE76F680835B6E7D2
:1015E0001B02059304AB9A8184E7009A002A49D133
:1015F000002B16D02B68DF0F6B689A1C00D18AE78E
:10160000320058320492013300D1B6E0281DFFF7B2
:10161000CDFD3A00010004AB300000E000BF00281F
:101620006CD10835BBE72A68009957007F0800296C
:101630000DD1002B04D0029B002B72D0002F3CD088
:10164000002A00DA04350137BF00ED19A7E7336A35
:101650000D2120009846FFF7C3FE804501D02A687F
:10166000EEE7B36A9D42FAD10023F3620433336399
:101670002B1DB76273632B68002B00DA87E0012310
:101680000193E0E70D212000376AFFF7A9FE8742AA
:10169000C7D1B36A9D42C4D1B046A2462800FFF725
:1016A000ADFC0F2102005046FFF7C0FE50464246F7
:1016B0000021FFF7BBFE07202EE7B046A2460D2112
:1016C0005046FFF78DFE4346049A18625A62062080
:1016D0009D6221E72800FFF791FC0435A246B5631F
:1016E0000400300000E000BF002800D113E750469E
:1016F00022000F21FFF79AFE07200DE7A2460D21D9
:1017000004005046FFF76CFEB04633003062022CF6
:1017100039D1049A2C33F2627362434606209D62EB
:10172000FAE62B1D9A460023984658339C46210022
:101730004A46B4445446A9468A463D000392474669
:10174000E0460EE0434620000493FFF72FFD002201
:10175000010004AB300000E000BF01370434002872
:1017600004D1AF42EED14D46B046A8E72F004D461A
:10177000039B544699462A6862E70D212000FFF733
:101780002FFEB04630624346049A5A62C5E7781C81
:101790008000B046A246281881E7C046000000003D
:1017A00010B50023FFF786FE10BDC04610B501231B
:1017B000FFF780FE10BDC04610B50223FFF77AFE8A
:1017C00010BDC046F0B5CE46474680B505001400B2
:1017D0001E00C3B0032944D020D8002949D00129D4
:1017E00041D1130C14049846230C9946012E00D1C4
:1017F0007AE0052E37D144464C44202C33D843465A
:101800000F2B00D8B5E04C46002C00D0C2E04A4671
:10181000A96B20AF002A22D000247FE0042922D126
:10182000002B20D1102A1ED8102203681A4200D0A3
:10183000C7E020AF380000F021F90126390000236D
:10184000AA6B30009840044201D001CA08600133FD
:101850000431042BF5D13800AA6300F00DF9002003
:1018600002E0032B1CD0022043B0C0BCB946B046F6
:10187000F0BD002BF7D1002301271604826B360C34
:10188000011D38009840064201D001CA08600133AA
:101890000431102BF5D10020A304E5D4AA63E3E7BB
:1018A0001404160C240C3319102BDCD808220368FE
:1018B0001A4200D08CE020AF380000F0DBF8F600D0
:1018C000AB6B002C0AD0F61AE400321F1C19BA18B0
:1018D0001900096804339950A342F9D13800AB6369
:1018E00000F0C6F80020BFE743464B44102BBAD89F
:1018F00043460F2BB7D82B681E4206D00322280080
:1019000093432B60483000F0A9F820AF380000F076
:10191000A5F84A460024A96B002A61D04346DB00A3
:10192000FF180023D200C858F85004339A42FAD165
:101930008918002C0FD06F464046102800D2102086
:1019400000231038C0003818E200CF58C7500433C5
:101950009342FAD1C918012E41D04346A9630F2BF7
:1019600045D9002C00D17AE7684600F07DF80020C8
:101970007AE7102C46D9103C01222B681A4207D076
:1019800093430222280013432B60483000F06AF88A
:10199000002C39D004222B681A422CD143460F2B3D
:1019A00003D820AF380000F05DF86F46380000F033
:1019B0005DF810224346A96BD21A002ABCDD20AF85
:1019C000ACE793430360D130FF3000F057F830E7C5
:1019D000934303605130FF3000F04CF86BE720AFC9
:1019E00004313800A96300F037F800203CE720A854
:1019F00000F036F8B5E7280093432B60D03000F0B4
:101A000035F8CBE70024B7E743460F2B00D9FEE6B5
:101A100020AF380000F026F84A46A96B002A00D013
:101A2000FAE6380000F01CF800201DE70100343110
:101A300038C9043B9C461D60A646010020313CC9C4
:101A400090469946A246AB4601000831FCC9416860
:101A50000068E54600BDC0467047C0467047C046B6
:101A60007047C0467047C0467047C0467047C04682
:101A70007047C0467047C0467047C0467047C04672
:101A800001B401A801B585B0FFB408A841464A4693
:101A900053465C4665463EC001A83EC80F9800907C
:101AA00000230CB401A9FFF711FC109B12B01847DA
:101AB00001B401A801B585B0FFB408A841464A4663
:101AC00053465C4665463EC001A83EC80F9800904C
:101AD00000230CB401A9FFF72DFC109B12B018478E
:101AE00001B401A801B585B0FFB408A841464A4633
:101AF00053465C4665463EC001A83EC80F9800901C
:101B000000230CB401A9FFF739FC109B12B0184751
:101B100001B401A801B585B0FFB408A841464A4602
:101B200053465C4665463EC001A83EC80F980090EB
:101B300000230CB401ABFFF7F3FB109B12B0184766
:101B400001B401A801B585B0FFB408A841464A46D2
:101B500053465C4665463EC001A83EC80F980090BB
:101B600000230CB401AAFFF76DFC109B12B01847BC
:101B7000027A0300002A0BD1427A002A0FD0013AE0
:101B800042724268111D416003211268017202E035
:101B9000013A02720268100E12021A607047B020F9
:101BA000FCE7C04600B585B003AB00930C220023D0
:101BB0000021FFF7FBFB039805B000BD10B5FFF750
:101BC000F1FF10BDF0B54E4645465746DE460023B0
:101BD000E0B587B003930F339846083B99468023BE
:101BE0001B0305000E009A463000FFF7C1FF0400FA
:101BF000B02800D1C1E0030629D503004246934333
:101C0000DBB2802B53D0902B3DD0A02B6BD0B02BD0
:101C100000D17EE0C02B00D195E003004A469343FB
:101C2000DBB2D02B0AD15346024001321A430523BE
:101C300001212800FFF7C6FD0028D5D00924200087
:101C400007B0F0BCBB46B246A946A046F0BDFF2394
:101C5000820013401F1D05AB9B4600930D220023FD
:101C600000212800FFF7A2FB630639D4059B9C46A0
:101C700067445B460597009300230D22002128004E
:101C8000FFF7BAFBB0E7833B03400D2BD6D005AF7F
:101C900002400023002128000097FFF787FB002364
:101CA0000D22002128000097FFF7A6FB9CE7040205
:101CB0003000FFF75DFF802720433F02B842BDD0D0
:101CC00004010005020C002300212800FFF77AFD23
:101CD0000028B3D13C4200D186E70123039383E778
:101CE000059BDF1BC5E7FF234A461B011900824302
:101CF00011410A001A40030702D58023DB011A4371
:101D0000002300212800FFF75DFD002800D16BE7CC
:101D100094E7B12845D0B22800D19FE0B32855D030
:101D2000FC230340B42B00D188E74A4653460240C7
:101D300001321A43012101232800FFF743FD002847
:101D400000D151E77AE7C6284BD0C7285DD0030001
:101D50004A469343DBB2C02B6CD0C82871D0C92847
:101D600000D06BE73000FFF703FFF02302031B03F3
:101D7000134042460240013258E7039B0024002BE7
:101D800000D05CE705AE0E22002128000096FFF788
:101D90000DFB00230F22002128000096FFF72CFBEB
:101DA0004DE73000FFF7E4FE021E00D146E70300D6
:101DB00041468B43DBB2002B00D03FE700212800D7
:101DC000FFF700FD002800D10EE737E73000FFF7EE
:101DD000CFFEF02302031B031340424602400132B0
:101DE000A7E73000FFF7C4FEF02302031B031340F4
:101DF0004246024001321A43032303212800FFF721
:101E0000E1FC002800D1EFE618E73000FFF7B0FE54
:101E1000021E00D112E7030041468B43DBB2002BC8
:101E200000D00BE704212800FFF7CCFC002800D1EC
:101E3000DAE603E74346A0221C40013412032243A2
:101E4000DAE73000FFF794FE434602009A43D2B22D
:101E500010321840120301300243E8E605AB00934C
:101E60009B460D22002300212800FFF79FFA300037
:101E7000FFF77EFE03061AD57F27B03C059B38404E
:101E8000A0409C466044059030000734FFF770FE88
:101E90000306F3D481217F2389008C460340A340AD
:101EA000059A62449B1805935B460093E4E602247E
:101EB000F0E7C046030000B5DA6C85B0536808004F
:101EC0000832190201910292694603221B0E0A731D
:101ED0004B7301A9FFF776FE05B000BD10B5FFF703
:101EE0006DFE806C10BDC04610B5FFF767FEC26C7A
:101EF000D07902308000101810BDC0461C2101238B
:101F00001B04984201D3000C10391B0A984201D3DC
:101F1000000A08391B09984201D30009043902A2BA
:101F2000105C40187047C046040302020101010121
:101F3000000000000000000000B585B00C22002168
:101F400001A803F07BFF1848184B0360002343608F
:101F50008360C360012202610421416103764376FC
:101F60008376C376C221FF31C16103629E39FF3996
:101F70004354826200F0C2FC00280FD10423019375
:101F800080235B01029380235B05039301A906482C
:101F900000F080FE002804D105B000BD00F04AF931
:101FA000ECE700F047F9F7E76C040020002401405B
:101FB00010B588B004001422002103A803F03EFFEE
:101FC000224B22689A4201D008B010BD204B99697B
:101FD00080208000014399619A6902400192019A30
:101FE0005A69802189020A435A615B690B40029356
:101FF000029B102303930D3B04937138FF3803A910
:10200000C00501F0A5F91348134B0360002343609A
:1020100083608022C260803202618022D2004261ED
:102020008361C36100F06AFF00280BD1094B236371
:102030005C62002201210C2000F0D2FE0C2000F096
:10204000FFFEC1E700F0F6F8F0E7C04600240140CB
:1020500000100240AC0400200800024000B583B02C
:10206000094A51690123194351615269134001938F
:10207000019B00220021092000F0B2FE092000F09F
:10208000DFFE03B000BDC0460010024010B588B0AE
:102090001422002103A803F0D1FE134B59698020BC
:1020A000C003014359615A6902400192019A5A6979
:1020B000802189020A435A615B690B400293029BAB
:1020C0000A4C00220321200001F002FA03230393AB
:1020D000023B049300230593069303A9200001F01B
:1020E00037F908B010BDC046001002400014004887
:1020F00010B51548154B0360154B436016238360DC
:10210000153BC36080231B0203610023436183618D
:10211000C361036201F0B6FB00280CD100210A481C
:1021200002F08EFB002809D10021074802F0B4FB21
:10213000002806D110BD00F07DF8EFE700F07AF836
:10214000F2E700F077F8F5E7F004002000540040D3
:102150000E09002010B588B004001422002103A845
:1021600003F06CFE2268184B9A4201D008B010BDF3
:10217000164C6269802189020A43626163690B40DF
:102180000193019BC023DB00039312230493113BB3
:1021900005930233069301330793902003A9C005EA
:1021A00001F0D6F8E269802189030A43E261E3691C
:1021B0000B400293029B00220021172000F010FE2A
:1021C000172000F03DFED1E700540040001002400F
:1021D00010B5154B154A1A60154A5A6098600122CD
:1021E000DA60802212021A6100225A619A61DA6171
:1021F0001A62180001F046FB00280CD100210A48A1
:1022000002F01EFB002809D10021074802F044FB20
:10221000002806D110BD00F00DF8EFE700F00AF835
:10222000F2E700F007F8F5E7F00400200054004062
:102230000E09002072B6FEE710B598B034220021D6
:102240000BA803F0FBFD10241022002107A803F0C7
:10225000F5FD1822002101A803F0F0FD32230B93B5
:10226000313B0E93139310930F9411940BA802F02B
:102270003DFB002817D107230793043B0893002355
:1022800009930A93012107A802F00EFE00280CD141
:10229000202301930023049301A802F0A7FE002845
:1022A00005D118B010BDFFF7C5FFFFF7C3FFFFF75B
:1022B000C1FF10B500F096FAFFF7BEFFFFF7E6FE8C
:1022C000FFF7CCFEFFF738FEFFF712FF00F0DAF859
:1022D00000F060F803F052FCFEE7000082B00A4B09
:1022E000996901221143996199690A400092009A03
:1022F000DA69802149050A43DA61DB690B40019301
:10230000019B02B07047C04600100240FEE7FEE7A6
:102310007047704710B500F075FA10BD10B502484F
:1023200000F074FE10BDC046AC04002010B5024899
:1023300000F048FC10BDC0466C04002010B50248F7
:1023400002F0DEFF10BDC0465405002010B5074B5B
:102350001B689A69E023DB001A4203D0034802F0AD
:1023600031FA10BD014801F035FCFAE7F004002015
:102370000120704710B503F0E7FC1623036001202D
:10238000404210BD10B501214942FFF7F3FFFEE7BF
:102390007047000010B50948094B03602F234360C4
:1023A00000238360074AC2600361836103F098F8E9
:1023B000002800D110BDFFF73DFFFBE754050020CA
:1023C000002000408713000082B00268074B9A4249
:1023D00001D002B07047064AD16902231943D16186
:1023E000D26913400193019BF3E7C046000400400B
:1023F0000010024000B583B002680C4B9A4201D035
:1024000003B000BD0A4AD169802040000143D16178
:10241000D36903400193019B00220321ED3800F0B2
:10242000DFFC132000F00CFDEAE7C046002000406E
:102430000010024010B586B004001422002101A84B
:1024400003F0FCFC22680D4B9A4201D006B010BD8F
:102450000B4A516980208002014351615369034056
:102460000093009BC0230193BE3B0293013B059365
:10247000902001A9C00500F06BFFE7E700040040D1
:102480000010024000B58BB00822002108A803F01C
:10249000D5FC1C22002101A803F0D0FC1D481E4BD6
:1024A00003600023436083601C4AC2600361836150
:1024B00003F042F8002821D100230893099308A9CA
:1024C000144803F0A1F900281BD1602301930023D5
:1024D000029303930593002201A90E4803F098F894
:1024E000002811D1042201A90A4803F091F800281C
:1024F0000DD10848FFF79EFF0BB000BDFFF79AFE15
:10250000DAE7FFF797FEE0E7FFF794FEEAE7FFF769
:1025100091FEEEE79C05002000040040E703000068
:1025200013488546FFF734FF12480168090E124A26
:10253000914205D1114812490160124812490160C7
:1025400012481349134A002302E0D458C4500433FC
:10255000C4188C42F9D3104A104C002301E01360D8
:102560000432A242FBD303F0F5FBFFF7A2FEFEE725
:1025700000180020040000001F0000001810024096
:1025800001000000000001400000000000000020E9
:102590003C0400208C63000840040020A00A0020B6
:1025A000FEE7F8B5CE46474680B50400081C6169D1
:1025B000FEF714FB051C616AFEF710FB804665629E
:1025C000E169281CFDF77EFE071CE0612668311CCE
:1025D000FDF74CFE002835D0E661276A391C301C17
:1025E000FDF730FE00283BD02662291C6068FEF70C
:1025F000CFF9051CE169E068FEF7CAF9011C281C47
:10260000FDF760FE051C216AA068FEF7C1F9011CF8
:10261000281CFDF757FE051C41462069FEF7B8F956
:10262000011C281CFDF74EFE051CA062666D311CC6
:10263000FDF71CFE00281FD0A662A06AC0BCB946E8
:10264000B046F8BD80231B069C46B444E146614673
:10265000381CFDF7F7FD0028BFD04B46E361BCE70F
:1026600080231B069C466644311C381CFDF7EAFD9E
:102670000028BAD02662B8E780231B069C46664431
:10268000311C281CFDF7DEFD0028D6D0A662D4E759
:102690004023C35C002B0CD0094B1A680023536302
:1026A0000B1CFA208000814200D9031C9BB293636B
:1026B0007047034B1B6800225A639A63F8E7C046D1
:1026C0009C05002070B505000C1CFE218905201C0E
:1026D000FDF7CCFD002807D0FE24A4050649201CE8
:1026E000FEF756F9686570BD0021201CFDF7AAFDB4
:1026F0000028F3D00024F1E700007A444023C154BD
:1027000070470000014B185C7047C046E805002088
:10271000014B19547047C046E805002010B58022CF
:10272000D2000249024803F037FB10BD007C0008CC
:10273000E805002030B587B00023029301930133F0
:10274000059300F0EDFC02A903A800F0AFFD0028FE
:1027500015D10D4C00250D4B9C4210D80C49691821
:10276000202201A803F018FB019A00232100022077
:1027700000F024FD002802D104340435EBE700F01A
:10278000E7FC07B030BDC046007C0008FF7F0008B2
:10279000E805002010B504000F4B1978FA208000DE
:1027A000FDF7B2FC01000D4B1868FDF7ADFC00F021
:1027B00061FB00280DD1032C01D901200AE0013072
:1027C00000222100404200F00BFB054B1C60002062
:1027D00000E0012010BDC0460400002000000020E1
:1027E0000800002010B5064A136810210B4313603F
:1027F0000020FFF7CFFFFFF771FD002010BDC0469E
:1028000000200240034A1168034B1B785B181360D9
:102810007047C046E809002004000020014B1868FA
:102820007047C046E809002070B50400FFF7F6FFC6
:102830000500631C02D0044B1B78E418FFF7EEFF81
:10284000401BA042FAD370BD0400002030B583B015
:102850000400002301930368996803220A40012AB7
:1028600014D09968224A114218D19A6801210A436A
:102870009A60204B18682049FDF746FC0190019BA7
:10288000002B15D0019B013B0193F8E71A68D20792
:102890002BD4DA681204E4D5002024E0A36B1022C4
:1028A0001343A363E36B0F3A1343E36301201AE07E
:1028B000FFF7B4FF050023681B68DB0712D4FFF79E
:1028C000ADFF401B0228F6D923681B68DB07F2D452
:1028D000A36B10221343A363E36B0F3A1343E36329
:1028E000012000E0002003B030BD0020FBE7C0461F
:1028F000170000800000002040420F0070B5041E49
:1029000000D1B4E0836B002B00D180E0A36BDB0629
:1029100000D5A6E022689168042005000D40084219
:1029200000D09EE0A16B534B19400633FF3319438F
:10293000A163916801330B40012B6ED0D36818213D
:102940008B43A1680B43D360226813699B009B08EB
:1029500061680B4313612268D36847490B40D36019
:10296000237E9B03627ED2031343A17E4A0313435B
:10297000A26A012A58D0802252011343E26813430D
:102980002269022A52D02B432422A25C5200134314
:10299000E27E012A4CD0E269C221FF318A4202D094
:1029A000216A0A4313432168CA681A43CA60E26A6B
:1029B000802149058A420DD0012A0BD0022A09D074
:1029C000032A07D0042A05D0052A03D0062A01D0FD
:1029D000072A0AD120684169072291434161206892
:1029E0004169E56A2A400A4342612268D268234964
:1029F0000A409A422BD0A36B12229343023A13430C
:102A0000A363E36B0F3A1343E36301202EE0C36338
:102A100034228354FFF7CCFA78E71368DB079AD4A3
:102A2000D3681B0497D489E72A00A6E70425AAE700
:102A3000002903D1802252021343ACE7A26B20216C
:102A40000A43A263E26B1F390A43E263A3E7002350
:102A5000E363A36B03229343023A1343A36300206F
:102A600004E0A36B10221343A363012070BD012077
:102A7000FCE7C046FDFEFFFF1902FEFFE7FF3F83B4
:102A8000F8B504000D00160003689B685B073ED490
:102A90003423C35C012B3CD034230122C254437E37
:102AA000012B04D0FFF7D2FE071E2ED100E0002735
:102AB000A36B194A1A4080235B001343A3630023CE
:102AC000E3633422A354236B144A9A62236B144A9F
:102AD000DA62236B134A1A6323681C221A60226885
:102AE000536810210B4353602268D3680F390B439E
:102AF000D3602168403133002A00206B00F026FAB1
:102B00002268936804210B4393603800F8BD0227C4
:102B1000FBE70227F9E7C046FEF0FFFF292B00087C
:102B20009B2B0008A92B000810B5436A9A6B502113
:102B300011422BD1996B802292000A439A631A6842
:102B4000D068C0210901084213D1997E002910D113
:102B5000116809070DD5916849070ED451680C20FA
:102B6000814351609A6B0B490A400431FF310A439B
:102B70009A63180002F08CFE10BD9A6B20210A4364
:102B80009A63DA6B1F390A43DA63F2E71B6B1B6B3C
:102B90009847F1E7FEFEFFFF704710B5406AFFF768
:102BA000FBFF10BD7047704710B5406A836B402231
:102BB00013438363C36B3C3A1343C363FFF7F3FFD1
:102BC00010BD000070B5040003681D685E686A07E8
:102BD00001D5720703D42A0727D5320725D5A26B62
:102BE000D20604D4A16B802292000A43A263D96862
:102BF000C0221201114212D1A27E002A0FD12A074F
:102C00000DD59A6852072DD45A680C218A435A6010
:102C1000A36B1F4A13400432FF321343A363200007
:102C200002F036FE23680C221A602B0601D533060B
:102C300021D4EB0615D5F30613D5A36A012B03D0D7
:102C40002368DB68DB0709D5E36B02221343E363E8
:102C500023680E321A602000FFF7A5FF23681022B8
:102C60001A6070BDA36B20221343A363E36B1F3A6A
:102C70001343E363D3E7A26B80235B021343A36395
:102C80002000FFF78FFF236880221A60D1E7C0463B
:102C9000FEFEFFFF30B583B0040000230193343300
:102CA000C35C012B00D18AE034230122C2540368A3
:102CB0009A68520775D4434A4868904256D09A6A37
:102CC00001200D68A84002439A62E36A80225205FF
:102CD00093421ED0012B1CD0022B1AD0032B18D0EC
:102CE000042B16D0052B14D0062B12D0072B10D096
:102CF00022685069072303408868984209D05069C8
:102D0000072398435061206842698D682B40134324
:102D100043610B681A00103A022A4CD82A4A1268FA
:102D2000102B0ED0112B09D080235B041343264AAD
:102D300013600B68102B07D0002037E08023DB03E3
:102D4000F4E780231B04F1E7204B18682049FDF7C6
:102D5000DBF983001B185B00019302E0019B013B40
:102D60000193019B002BF9D100201FE09A6A0120FA
:102D70000D68A84082439A620B681A00103A022A32
:102D80001BD8114A1268102B09D0112B05D0114BFA
:102D900013400D4A1360002008E00F4BF8E70F4B7B
:102DA000F6E7836B20221343836301203423002240
:102DB000E25403B030BD0020F8E70020F6E702201F
:102DC000F7E7C0460110000008270140000000207E
:102DD00040420F00FFFFFFFEFFFFBFFFFFFF7FFF2F
:102DE00070B5002811DB8308134EC0339B009D593A
:102DF00003242040C000FF2214008440A543890121
:102E00000A4082402A439A5170BD0F230340083B79
:102E10009B0806339B00094A944663445C6803227E
:102E20001040C000FC3215008540AC4389010A40C7
:102E3000824022435A60E7E700E100E000ED00E055
:102E4000002805DB1F2318401E3B8340014A136006
:102E50007047C04600E100E0BFF34F8F034B044AC8
:102E6000DA60BFF34F8FC046FDE7C04600ED00E0DB
:102E70000400FA05013880235B0498420FD2094A06
:102E800050600948036A1B021B0AC02109060B4354
:102E90000362002393600733136000207047012012
:102EA000FCE7C04610E000E000ED00E030B5012492
:102EB000056CAC40C56B6C60046863604368102BA4
:102EC00004D0036899600368DA6030BD03689A60D3
:102ED0000368D960F9E7000010B504000068054BED
:102EE0009C4660441421FDF70FF980002064024BDA
:102EF000E36310BDF8FFFDBF0000024070B5041E83
:102F000020D021250223435501680B680E4A1A4040
:102F1000436880680343E0680343206903436069B2
:102F20000343A0690343E069034313430B6020009C
:102F3000FFF7D2FF0023A363012262551F32A3547F
:102F4000002070BD0120FCE70FC0FFFF70B504003A
:102F50002020205C012832D020200125255401307A
:102F6000205C012804D020230022E254022070BDFE
:102F70002030013525540020A063256828680126EB
:102F8000B04328602000FFF791FFE36A002B0BD0CD
:102F9000226813680E210B43136022681368012115
:102FA0000B4313600020E2E7226813680A210B43F9
:102FB00013602268136806398B431360EDE7022023
:102FC000D5E710B52123C35C022B03D00423836310
:102FD000012010BD026813680E218B431360016845
:102FE0000A6801239A430A60C26B1900046CA1406D
:102FF0005160212283541F330022C254436B002BA3
:1030000002D098470020E4E70020E2E770B5C36BE8
:103010001A6804682568016C04238B401A4212D098
:103020006B0710D523689B0603D4236804229343BF
:103030002360C26B0423016C8B405360C36A002B76
:1030400000D0984770BD02238B401A4218D0AB07BE
:1030500016D523689B0606D423680A22934323606F
:103060002123093AC254C26B0223016C8B40536086
:1030700020230022C254836A002BE3D09847E1E763
:1030800008238B401A42DDD02B07DBD523680E22A4
:1030900093432360C26B01231900046CA14051606B
:1030A0008363212283541F330022C254036B002BFD
:1030B000C8D09847C6E72123C05CC0B27047000063
:1030C00010B5054B0022DA61044A13690124234339
:1030D0001361018010BDC046F009002000200240AD
:1030E0000D4BDA6810210B001340114205D00B4A3A
:1030F000D3690E390B43D3611023074AD2685207B4
:1031000006D50649CA6901200243CA610422134355
:10311000014AD3607047C04600200240F0090020F9
:10312000084B1B691B0609D5064B074A5A60074A1C
:103130005A601B691B0603D4002000E00020704782
:103140000120FCE70020024023016745AB89EFCD59
:10315000034A136980210B43136100207047C04666
:103160000020024070B50400FFF758FB0500124B29
:10317000DB68DB070AD5631CF9D0002C04D0FFF70D
:103180004DFB401BA042F2D903200FE00A4BDB6845
:103190009B0602D5084B2022DA60074BDB68DB0672
:1031A00005D4054BDB685B0701D4002070BDFFF739
:1031B00097FF0120FAE7C04600200240F8B5CE464E
:1031C000474680B505000E0090461F00224B1B7E2F
:1031D000012B3ED0204B01221A762048FFF7C2FF78
:1031E000041E2FD1012D07D0022D02D004239946B1
:1031F0001DE0022399461AE00123994617E0202298
:10320000D21A390091400A004146D940114389B28F
:103210008019FFF755FF1148FFF7A4FF104A136903
:1032200001218B43136100280CD10134E4B24C45D9
:1032300008D260002301202252429A18DFD43900BC
:10324000D140E4E7044B00221A76C0BCB946B04630
:10325000F8BD0220F9E7C046F009002050C3000085
:1032600000200240064B0022DA61064B1A69042155
:103270000A431A611A693C310A431A617047C04611
:10328000F009002000200240064B0022DA61064BC4
:103290001A6902210A431A6158611A693E310A43C8
:1032A0001A617047F00900200020024070B5050047
:1032B0000E00244B1B7E012B41D0224B01221A769B
:1032C0000368012B22D02048FFF74CFF002831D1A2
:1032D00001235B4233606C680130AB689B026A6813
:1032E00094466344A34226D92000FFF7CDFF164839
:1032F000FFF738FF154A136902218B431361002839
:1033000016D18023DB009C466444E6E70E48FFF7B5
:1033100029FF002801D001200DE0FFF7A3FF0A4894
:10332000FFF720FF094A136904218B43136102E070
:10333000346000E00120034B00221A7670BD0220A9
:10334000FCE7C046F009002050C300000020024006
:10335000F0B583B0002357E084685F000326BE40C9
:10336000B4432600CC68BC40344384604468944332
:103370004A681609012232409A402243426053E0D3
:10338000DC080834A400265805321A4092000F27A2
:103390009740BE430F6997403A003243225057E0AE
:1033A000022600E00026A64034003C430232920090
:1033B000424E9451424A9468EA432600AE434F6815
:1033C000FF0201D52C4326003D4CA660E468260090
:1033D00016404F68BF0201D52C432600384CE660EA
:1033E0006468260016404F68BF0301D52C432600B1
:1033F000334C6660246822404E68F60301D52A00EB
:1034000022432F4C226001330C682200DA4052D054
:1034100001229A40250015401442F4D003244E683E
:103420003440013C012C97D903224C682240032AE6
:1034300009D0C2685E000324B440A24314008A6825
:10344000B2402243C26003224C682240022A97D035
:1034500004685E0003221700B740BC434F683A403F
:10346000B24022430260C02292024C681442CAD089
:10347000144CA66901221643A661A4692240019258
:10348000019A9A08941CA4000C4EA75903241C40CE
:10349000A4000F26A640B7439026F605B04281D07F
:1034A000094EB04205D0094EB04200D178E705265A
:1034B00079E7012677E703B0F0BDC0460000014080
:1034C00000040140001002400004004800080048C9
:1034D000002A01D0816170478162FCE703689A6924
:1034E000920701D500229A6203689A69D20703D431
:1034F0009A6901210A439A617047000010B5890555
:10350000890D120411431943029B194349004908CC
:10351000046862685B0D8020C000034002480343DA
:103520009A431143616010BDFF63FF03436B214A5F
:1035300093421DD0204A93421AD0204A934217D07A
:103540000BB2002B0FDB0023CA0701D5F222134375
:103550008A0701D5F4221343102906D0202919D156
:103560002022134316E0B823EEE790221343F5E739
:103570000BB2002B13DB0023CA0701D5F222134341
:103580008A0701D5F422134310290AD020290BD031
:1035900040290CD001680A6813430B607047B823B8
:1035A000EAE790221343F1E760221343F0E7402259
:1035B0001343EFE7754600084D45000891430008A6
:1035C00030B5CB0709D54123C35C28221340282BF3
:1035D00001D0F22302E01A3300E000238A0709D564
:1035E00044241C434122825C28252A40282A0FD0EB
:1035F000F42213430AB2002A0CDB10290DD0202933
:103600000ED040290FD001680A689A430A6030BD85
:103610002300EFE7B8221343EFE790221343EEE7CE
:1036200020221343EDE740221343ECE7F0B5C646F2
:1036300000B504000D00170001688B691022160008
:103640001E401A4200D175E01023CB61002398463A
:10365000002623689869820631D4002E2FD16B1C76
:10366000F7D0FFF7DBF8C01BA84201D8002DF0D13E
:1036700021684B688022D20113404222A25CD2B260
:103680008869000403D5002B01D1202A0ED12368BC
:103690009B699B06DDD4FFF7C1F8C01B1928F6D93A
:1036A000202342461A4390460126D2E74A688023E7
:1036B000DB0113434B60FFF7B1F80700E7E7002E8B
:1036C00001D12022DA610426434633431E0001253E
:1036D00022689369D90504D501210E43FF31D161D8
:1036E00001255A0506D50822164322688021C90003
:1036F000D16101259B051FD502231E43236880222B
:103700009200DA6101252000FFF7E8FE2268536885
:103710000B490B405360636C1E43666441232022B7
:10372000E25400232232A354023AA354280080BC5E
:10373000B846F0BD0025CBE7002DF7D0E3E7C04643
:1037400000E800FE70B504000D00160023689B69B8
:103750009B0720D4320029002000FFF767FF0028D4
:103760001BD16B1CF2D0FFF759F8801BA84201D87F
:10377000002DEBD123689B699B07E7D4636C202263
:10378000134363644123E25400232232A354023AD8
:10379000A354012000E0002070BD0120FCE7F0B53B
:1037A000D6464F4680B583B007000D0016009946F7
:1037B0000A9B9A463B689C692C40641B63425C41AF
:1037C0000196B44228D1524649463800FFF72EFFF1
:1037D000002827D14B460133ECD0FFF71FF85346A2
:1037E000C01A484502D84B46002BE3D13B689B6981
:1037F0002B405B1B5A425341019A9342DAD17B6CB6
:10380000202213437B644123FA5400232232BB5409
:10381000023ABB54012000E0002003B0C0BCBA460D
:10382000B146F0BD0120F8E770B504000D001600A8
:1038300003E023689B699B0612D523689B699B065E
:103840001BD4320029002000FFF7F0FE002816D11B
:10385000FEF7E4FF801BA842EBD8002DEDD1E8E78E
:10386000636C2022134363644123E2540023223219
:10387000A354023AA354012000E0002070BD0120AF
:10388000FCE7000010B5041E60D04123C35C002B90
:1038900048D041232422E2542268136801218B433B
:1038A000136022682A4B61680B4013612268936899
:1038B00028490B409360E368012B39D022688423A8
:1038C0001B02A1680B439360E368022B37D0226888
:1038D000536821490B405360226851681F4B0B43CA
:1038E00053602268D3681B490B40D3602369626927
:1038F0001343A269120221681343CB602268E36973
:10390000216A0B4313602268136801210B43136083
:103910000023636441221F31A15423630132A35465
:10392000002010BD40330022C254FEF713FCB0E764
:10393000226880231B02A1680B439360C4E72268BE
:10394000516880231B010B435360C5E70120E8E762
:10395000FFFFFFF0FF7FFFFFFFF7FFFF0080000288
:10396000F0B5C64600B582B004000D0090461E00BA
:103970004123C35C202B00D0EEE0002952D0002A66
:1039800050D04023C35C012B00D1EAE04023012248
:10399000C254FEF743FF070041232122E2540133C2
:1039A000013AE254002363646562424662856363C0
:1039B000226853686C490B40536080239B02226A43
:1039C0009A4234D000973300002208212000FFF7EC
:1039D000E6FE002837D123680822DA61E368022B6B
:1039E0003CD0802100973300002249022000FFF7DD
:1039F000D6FE00284AD1658DADB2002D59D03A00CF
:103A000031002000FFF79EFE00284AD12368626A39
:103A100012789A62636A01336362658D013DADB2CB
:103A20006585E8E780239B006364012095E02368B7
:103A3000626A12789A62636A01336362638D013B42
:103A40009BB26385BEE72268516880231B020B434B
:103A500053602000FFF742FD01207EE00097330015
:103A6000002208212000FFF79AFE002803D12368D6
:103A70000822DA61B5E72268516880231B020B43F4
:103A800053602000FFF72AFD012066E0226851689C
:103A900080231B020B4353602000FFF71FFD012012
:103AA0005BE02268516880231B020B4353600120B6
:103AB00053E000973300002210212000FFF76FFE33
:103AC000002821D0638D9BB2626C042A14D1002B94
:103AD00012D1636480210097330001220902200083
:103AE000FFF75DFE002828D02268516880231B0262
:103AF0000B435360012030E02268516880231B0291
:103B00000B435360012028E02000FFF7E7FC236807
:103B10001022DA613A0031002000FFF785FE00280C
:103B200003D123682022DA61D4E722685168802318
:103B30001B020B43536001200FE022685168802371
:103B40001B020B43536041232022E2540023223204
:103B5000A354023AA35400E0022002B080BCB8464D
:103B6000F0BD0220F9E7C046FF7FFFFFF8B5412313
:103B7000C35C202B21D12033C35C012B1FD04024F8
:103B80000123035540332225C5540133023DC5545A
:103B900000254564066873680A4F3B4073604162C4
:103BA0004285438D0385084BC362084B436305552B
:103BB0000749FFF7BBFC0020F8BD0220FCE702200C
:103BC000FAE7C046FF7FFFFF0000FFFF3541000816
:103BD0000280000010B5036899691A68436B002BD6
:103BE00000D0984710BD7047704770B5040042235D
:103BF0000022C254013BC35C212B0FD04123202261
:103C0000C2542F3B0363002545630221FFF7D8FC14
:103C10004023E5542000FFF7E7FF70BD203320323A
:103C2000C254303B0363002545630121FFF7C8FC04
:103C30004023E5542000FFF7D6FFEEE77047000071
:103C400010B5040003681A68422100206054510432
:103C50000CD51A6819490A401A604123E35C292BE4
:103C60000BD04123E35C2A2B17D010BD1204F4D5EE
:103C70001A6813490A401A60EFE718332822E25401
:103C8000203B236301212000FFF79AFC4023002200
:103C9000E2542000FFF7D2FFE7E717332822E2546F
:103CA0001F3B236302212000FFF78AFC40230022F0
:103CB000E254200001F0EEFDD7E7C046FFBFFFFF52
:103CC000FF7FFFFF7047F8B504004123C35C282243
:103CD0001340282B06D003680822DA614023002213
:103CE000C254F8BD01688E69360C273B1E408D69B1
:103CF0002D0CFE273D408B689B059B0DCA68174025
:103D0000C268022A24D1DA096A400620104211D181
:103D1000A26C0132A264A26C022AE2D10022A26447
:103D20000230C861402162541A0031002000FFF7C0
:103D3000C9FFD6E7802109022000FFF741FC40239C
:103D40000022E2543A0031002000FFF7BBFFC8E731
:103D500080210902FFF734FC40230022E2542A00AC
:103D600031002000FFF7AEFFBBE7704710B504003D
:103D7000164BC3620023036341222020A05401326A
:103D8000A35463634B0713D523685B6A626A13709D
:103D9000636A01336362238D002B09D0013B2385C5
:103DA000638D013B9BB26385636C042213436364A0
:103DB00007492000FFF704FC23681022DA61402342
:103DC0000022E2542000FFF7D0FF10BD0000FFFFEB
:103DD00003800000704770477047704710B541235B
:103DE000C35C602B06D00023036340228354FFF79B
:103DF000F3FF10BD1F3B2022C25400230363203277
:103E00008354FFF7EAFFF4E710B504004123C35CD5
:103E100000204222A054434AE2626085626C0A4359
:103E20006264283BDBB2022B1BD803212000FFF782
:103E3000C7FB41232822E2543B4B6363236BA26BF5
:103E4000002A03D0112B2DD0212B2BD0E26B002A7E
:103E500003D0122B46D0222B44D02000FFF7BEFF08
:103E600010BD32492000FFF7ABFB2000FFF736FB07
:103E70004123E35C602B12D020234122A35422680B
:103E800091690B420BD09369DB0605D51023D361F2
:103E9000636C04221343636423682022DA610023E5
:103EA0006363CBE723681A68520403D51A68204974
:103EB0000A401A60A06BFFF7FEF801280ED0A36B32
:103EC0001C4A5A6340230022E254A06BFFF779F8A2
:103ED0000028C5D0A06B436B9847C1E72000FFF7CF
:103EE0007DFFBDE723681A68120403D51A681249DA
:103EF0000A401A60E06BFFF7DEF801280ED0E36B92
:103F00000C4A5A6340230022E254E06BFFF759F851
:103F10000028A5D0E06B436B9847A1E72000FFF78E
:103F20005DFF9DE70000FFFF3541000803800000B2
:103F3000FFBFFFFF23480008FF7FFFFFF8B5040025
:103F40000D0001680E68C76A4123C25CD3B220200D
:103F5000C861212A0ED0292B0CD0222B75D02A2BF8
:103F600073D0282B0CD16C492000FFF729FB0023CC
:103F7000236305E069492000FFF722FB2123236327
:103F80002268516880231B020B43536022685368E8
:103F900063490B4053602000FFF7A0FA73045BD520
:103FA000226813685F490B401360A36B002B03D09A
:103FB0001B685B689BB263856B0711D504239D4327
:103FC00023685B6A626A1370636A01336362238DDC
:103FD000002B05D0013B2385638D013B9BB263859C
:103FE000638D9BB2002B03D0636C04221343636484
:103FF000EB0610D5F3060ED5638D9BB2002B50D186
:104000004133E35C282B36D04123E35C292B3BD0A2
:1040100023681022DA6100234222A3546363636C95
:10402000002B50D1E26A404B9A4259D14123E35CC4
:10403000222B65D041232022E25400232363203227
:10404000A3542000FFF7FAFD59E038492000FFF79C
:10405000B7FA2223236393E73304ADD522681368AC
:1040600033490B401360E36B002BA5D01B685B68E2
:104070009BB26385A0E780239B049F42C4D12900A3
:104080002000FFF773FEC6E7274B9F42C0D023688E
:104090001022DA612000FFF721FA2000FFF7D0FD9F
:1040A000B9E723681022DA61636C0C3A1343636446
:1040B000002F03D080235B049F42ACD1616C2000B1
:1040C000FFF7A2FEA7E7616C2000FFF79DFE4123EA
:1040D000E35C282B13D129002000FFF747FE0EE0F8
:1040E0002000FFF7ADFD104BE36241232022E25494
:1040F000002323632032A3542000FFF736FEF8BDCF
:104100001F332022E254002323632032A3542000D3
:1041100001F0C0FBF3E7C04603800000018000000F
:1041200000E800FEFFBFFFFF0000FFFF028000006D
:10413000FF7FFFFF70B50400C56A4023C35C012BFD
:1041400000D195E00123402023544809034201D0C7
:10415000930613D4CB0640D5D3063ED5638D9BB2D0
:10416000002B28D14133E35C282B0FD04123E35CA3
:10417000292B13D023681022DA6102E02000FFF718
:10418000DDFE40230022E254002070BD80239B040A
:104190009D42EBD12000FFF7E9FDF2E7354B9D4250
:1041A000E8D023681022DA612000FFF797F9200099
:1041B000FFF746FDE5E723681022DA61636C0C3AED
:1041C00013436364002D03D080235B049D42D8D148
:1041D000616C2000FFF718FED3E74B071ED553078D
:1041E0001CD5638D9BB2002B0DD023685B6A626A7D
:1041F0001370636A01336362238D013B2385638DF2
:10420000013B9BB26385638D9BB2002BB9D1194BE7
:104210009D42B6D02000FFF713FDB2E70B0701D592
:10422000130716D48B07ACD59307AAD5638D9BB221
:10423000002B12D02368626A12789A62636A013393
:104240006362638D013B9BB26385238D013B2385B4
:1042500097E72000FFF737FD93E780235B049D423B
:1042600002D0002D00D08CE72000FFF7E9FC88E7A2
:1042700002208AE70000FFFF30B583B004000D0084
:1042800003682022DA614123C35C212B29D041231A
:10429000C35C222B2BD0226853683B490B405360F0
:1042A00000236363394BE362EB0606D523681022D3
:1042B000DA61636C0C3A134363644123E35C602B63
:1042C0001BD02000FFF70AF9626C4123E35C602BEE
:1042D00001D0002A1AD0616C2000FFF795FD03B0D1
:1042E00030BD0121FFF76CF911232363D3E70221CD
:1042F000FFF766F912232363CDE76B07E1D5236847
:104300005A6AFF2313400193019BDAE74123E35CE0
:10431000212B15D04123E35C222BE0D11F33202237
:10432000E254002323634233E35C402B23D0002379
:104330004222A354023AA3542000FFF755FCCEE7D3
:1043400020332022E254002323634233E35C402BDA
:1043500008D000234222A354023AA3542000FFF7BE
:1043600042FCBCE700232232A354023AA3542000AB
:10437000FFF730FDB3E700232232A354023AA354DF
:104380002000FFF728FDAAE700E800FE0000FFFF7D
:1043900010B582B004004023C35C012B00D1CEE0F5
:1043A0000123402023540809034201D0D3060FD42F
:1043B0008B071CD593071AD52368226D9A620123B7
:1043C0005B42236540230022E254002002B010BD6E
:1043D00023681022DA61636C0C3A13436364202172
:1043E0002000FFF7A3F82000FFF778F8EAE70B06B4
:1043F00001D553060BD44B0601D5530655D48B0675
:10440000E0D59306DED52000FFF736FFDAE701217D
:104410002000FFF7D5F810212000FFF787F8638D03
:104420009BB2002B3CD0638D9BB2FF2B23D923681A
:104430009B69DB031CD501232385E16C228D80233E
:10444000D2B289B2002000905B042000FFF756F83A
:10445000638D228D9B1A9BB263854123E35C222BE3
:1044600017D0226811688023DB010B431360A9E792
:10447000FF232385E1E7628D92B22285E16C8023E0
:10448000D2B289B2002000909B042000FFF736F8DA
:10449000DEE72268116880231B020B43136091E75B
:1044A00040212000FFF7B0FC8CE701212000FFF73E
:1044B00087F810212000FFF739F84123E35C222B15
:1044C00024D02048638D9BB2FF2B24D923689B699D
:1044D000DB031DD501232385E16C228D8023D2B21D
:1044E00089B200905B042000FFF708F8638D228DED
:1044F0009B1A9BB263854123E35C222B18D0226870
:1045000011688023DB010B4313605BE70E48D9E79A
:10451000FF232385E0E7628D92B22285E16C802340
:10452000D2B289B200909B042000FEF7E7FFDDE7DE
:104530002268116880231B020B43136042E70220AC
:1045400044E7C046002000800024008070B50400CD
:10455000C56A4023C35C012B00D186E001234020C3
:1045600023544809034201D0930616D4CB066FD5D5
:10457000D3066DD5930B012006001E40184201D1D1
:10458000130461D5E36B002B0BD012040BD51B6811
:104590005B68002B2ED0002206E02000FFF7CEFC47
:1045A0005AE0002200E00022A36B002B05D0002E71
:1045B00003D01B685B68002B1ED0012A1CD0236827
:1045C0001022DA61636C0C3A134363644123E35CA9
:1045D000DBB2002D03D08022520495423CD1212B26
:1045E0002BD0292B29D0222B01D02A2B27D12223D3
:1045F000236324E00122D7E74123E35C282B07D083
:104600004123E35C292B0BD023681022DA6123E0DD
:1046100080239B049D42F3D12000FFF7A7FB1BE002
:10462000134B9D42F0D023681022DA612000FEF780
:1046300055FF2000FFF704FB0EE021232363616C8C
:104640002000FFF7E1FB07E023681022DA6103E0B6
:104650000B0701D5130704D440230022E2540020A5
:1046600070BD2000FFF72FFBF6E70220F8E7C046F9
:104670000000FFFF10B582B004004023C35C012B93
:1046800000D19BE00123402023540809034201D0BC
:10469000D3061ED40B0600D469E0530600D466E0AE
:1046A0002268136840218B431360638D9BB2002BFB
:1046B00050D0226851688905890D638D9BB2FF2B0C
:1046C00020D99369DB0318D50123238580235B045C
:1046D0001FE023681022DA61636C0C3A13436364B1
:1046E00020212000FEF722FF2000FEF7F7FE4023E6
:1046F0000022E254002002B010BDFF232385802356
:104700005B0406E0638D2385E26A2D4B9A4217D045
:10471000E36A228DD2B2002000902000FEF7EEFE68
:10472000638D228D9B1A9BB263854123E35C222B10
:1047300009D0226811688023DB010B431360D6E7A0
:1047400080239B04E5E72268116880231B020B434A
:104750001360CCE723685B689B0103D42000FFF75C
:1047600044FAC4E740212000FFF74EFBBFE74B06A9
:104770001CD553061AD5638D9BB2002B11D123682B
:104780005A689201B3D4E16A0D4A914205D1596841
:104790008022D2010A435A60A9E72000FFF725FAD8
:1047A000A5E740212000FFF72FFBA0E78B069ED551
:1047B00093069CD52000FFF75FFD98E702209AE75B
:1047C0000000FFFF70B5026893691168DC0508D529
:1047D0000C0606D5446C01252C43446480246400F7
:1047E000D4615A0509D50A0607D5426C082422432C
:1047F000426402688024E400D4619B0509D50B065D
:1048000007D5436C0222134343640368FF32FF322F
:10481000DA61416C0B230B4200D170BDFFF7F4FA53
:10482000FBE710B5406A836B002B01D000225A636E
:10483000C36B002B01D000225A63FFF7CFFA10BDE3
:10484000F0B54123C35C202B20D12033C35C012B66
:104850001ED04024012202554125242343550668D9
:10486000336893433360066833680A4F3B403360D4
:10487000066833681943316001680B6813430B60A5
:1048800020234355002303550020F0BD0220FCE700
:104890000220FAE7FFEFFFFFF0B54123C35C202BB6
:1048A0001ED12033C35C012B1CD0402401220255B1
:1048B00041252423435506683368934333600668D3
:1048C0003368094F3B4009021943316001680B68A6
:1048D00013430B6020234355002303550020F0BDF4
:1048E0000220FCE70220FAE7FFF0FFFF70B582B07C
:1048F000041E00D17FE20368DB072BD5B34B5A6857
:104900000C231340042B1DD0B04B5A680C231340CA
:10491000082B0ED06368012B41D0002B56D1AB4B36
:104920001A68AB490A401A601A68AA490A401A6014
:104930003BE0A64B5B68C022520213408022520229
:104940009342E7D1A14B1B689B0303D56368002BFF
:1049500000D153E223689B0777D59C4B5B680C2200
:104960001A4262D0994B5A680C231340082B53D03B
:10497000E368002B00D18AE0944A136801210B43BD
:104980001360FDF74BFF0500904B1B689B0775D428
:10499000FDF744FF401B0228F6D903202CE28B4A86
:1049A000116880235B020B4313606368002B25D0E2
:1049B000FDF734FF0500854B1B689B03CAD4FDF748
:1049C0002DFF401B6428F6D9032015E2052B09D0E2
:1049D0007E4B1A687E490A401A601A687D490A406F
:1049E0001A60E2E7794B19688022D2020A431A6002
:1049F0001968802252020A431A60D6E7FDF70EFFBB
:104A00000500724B1B689B03A4D5FDF707FF401BF5
:104A10006428F6D90320EFE16C4B5B68C022520298
:104A20001340802212029342A2D1684B1B689B075D
:104A300003D5E368012B00D0E2E164490B68F8225A
:104A400093432269D20013430B6023681B0744D5AC
:104A5000E369002B2ED05D4A536A01210B43536258
:104A6000FDF7DCFE0500594B5B6A9B0735D4FDF76B
:104A7000D5FE401B0228F6D90320BDE153490B683F
:104A8000F82293432269D20013430B60DDE74F4ABB
:104A9000136801218B431360FDF7C0FE05004B4BEB
:104AA0001B689B07D1D5FDF7B9FE401B0228F6D93C
:104AB0000320A1E1454A536A01218B435362FDF76C
:104AC000ADFE0500414B5B6A9B0706D5FDF7A6FED0
:104AD000401B0228F6D903208EE123685B0700D42F
:104AE00080E03A4BDB69DB001DD4384AD169802075
:104AF00040050143D161D36903400193019B012526
:104B0000354B1B68DB0510D5A368012B21D0002B8A
:104B100036D12E4B1A6A01218A431A621A6A03316E
:104B20008A431A621AE00025EAE72B4A11688023BB
:104B30005B000B431360FDF771FE0600264B1B68FC
:104B4000DB05E1D4FDF76AFE801B6428F6D903205B
:104B500052E11E4A136A01210B431362A368002B22
:104B600024D0FDF75BFE0600184B1B6A9B0737D469
:104B7000FDF754FE801B194B9842F5D903203BE109
:104B8000052B09D0114B1A6A01218A431A621A6A4D
:104B900003318A431A62E1E70C4B1A6A04210A4383
:104BA0001A621A6A03390A431A62D7E7FDF736FE1A
:104BB0000600064B1B6A9B0712D5FDF72FFE801BD4
:104BC000064B9842F5D9032016E1C046001002407A
:104BD000FFFFFEFFFFFFFBFF007000408813000097
:104BE000012D39D02368DB0610D56369012B39D03C
:104BF000053357D1894A536B04218B435363536B5D
:104C0000F4318B43A169C9000B43536323689B06AE
:104C10006ED5824B5A680C2313400C2B60D07F4B0F
:104C20005A680C231340082B53D0236A002B7ED0E4
:104C30007A4A516B80235B020B435363FDF7EEFD11
:104C40000500764B5B6B9B0352D4FDF7E7FD401BE1
:104C50000228F6D90320CFE0704AD36970490B408F
:104C6000D361BFE76D4B5A6B04210A435A635A6BF9
:104C700003390A435A63FDF7D1FD0500674B5B6BAF
:104C80009B0706D4FDF7CAFD401B0228F6D9032076
:104C9000B2E062494B6BF8229343A269D2001343FE
:104CA0004B63B3E75D4B5A6B04210A435A635A6B5B
:104CB00003398A435A63FDF7B1FD0500574B5B6B1F
:104CC0009B07A3D5FDF7AAFD401B0228F6D90320B8
:104CD00092E0524B5B68C022520213409342A4D12F
:104CE0004E4B5B6B9B0303D5236A012B00D089E0FD
:104CF000636A002B00D187E0484A51680C220A40C1
:104D0000082A60D0022B25D0444A136845490B403D
:104D10001360FDF783FD0400404B1B689B0150D5D9
:104D2000FDF77CFD001B0228F6D9032064E03B4A16
:104D3000536B3D490B405363FDF770FD0500374B46
:104D40005B6B9B03D4D5FDF769FD401B0228F6D9A8
:104D5000032051E0314A136832490B401360FDF7DC
:104D60005DFD05002D4B1B689B0106D5FDF756FD2B
:104D7000401B0228F6D903203EE0284BDA6A0F21B7
:104D80008A43216B0A43DA625A6828490A40E16A79
:104D9000A06A01430A435A601968802252040A43F8
:104DA0001A60FDF73BFD04001C4B1B689B0106D4F9
:104DB000FDF734FD001B0228F6D903201CE000207B
:104DC0001AE0002018E0012B20D0144B5A68D96A51
:104DD000C0235B021340A06A834219D10F230B400A
:104DE000216B8B4216D1F0239B031A40E36A9A424F
:104DF00012D1002000E0012002B070BD0120FBE7CD
:104E00000120F9E70120F7E70020F5E70120F3E7AB
:104E10000120F1E70120EFE70120EDE7001002405B
:104E2000FFFFFFEFFFFFFFFEFFFFFEFFFF7FC2FF61
:104E300010B5184B5A680C231340082B03D00C2BC9
:104E400025D1154810BD910C0F2319401348445C1F
:104E50001049C96A0B401249C95CC0235B021A4061
:104E600080235B029A4208D0C0235B029A4209D099
:104E70000C48FBF749F96043E4E70A48FBF744F9BB
:104E80006043DFE70448FBF73FF96043DAE7054892
:104E9000D8E7C04600100240006CDC0290610008B8
:104EA000A061000800127A0070B504000D0000280F
:104EB00000D186E0474B1A68012313408B420AD287
:104EC00044490B68012293432B430B600B681A4043
:104ED000AA4200D077E023689A070ED55B0705D574
:104EE0003D4A5168E023DB000B4353603A4A536864
:104EF000F0218B43A1680B4353602368DB0735D552
:104F00006368012B09D0022B24D0032B28D0324A0E
:104F10001268920705D4012052E02F4A12689203CA
:104F200053D52D494A680320824313434B60FDF754
:104F300075FC0600284B5B680C221A4063689B00D6
:104F40009A4213D0FDF76AFC801B244B9842F1D99A
:104F5000032035E0204A12689201E2D401202FE0BC
:104F60001D4A526B9203DCD4012029E0194B1A68C8
:104F700001231340AB4209D916490B680122934320
:104F80002B430B600B681A40AA4220D123685B07B1
:104F900006D5114A536812490B40E1680B43536030
:104FA000FFF746FF0C4B5A6812090F2313400D4AB6
:104FB000D35CD8400C4B18600020FDF7EBFB0020C1
:104FC00070BD0120FCE70120FAE70120F8E701208D
:104FD000F6E7C0460020024000100240881300009F
:104FE000FFF8FFFF806100080000002070B582B06C
:104FF00004000368DB0337D5474BDB69DB005DD476
:10500000454AD169802040050143D161D3690340FD
:105010000193019B0125414B1B68DB0550D53E4B9D
:105020001A6AC0239B00110019401A4213D062680B
:1050300013408B420FD0384B186A394A02401E6A1F
:105040008021490231431962196A364E3140196292
:105050001A62C30748D4304A136A31490B40616869
:105060000B431362012D4ED02368DB0706D52A4A75
:10507000136B03218B43A1680B43136323689B06C7
:1050800006D5254A136B10218B43E1680B4313634C
:1050900023689B0306D5204A136B80218B436169EB
:1050A0000B43136323685B0532D51B4A136B402106
:1050B0008B4321690B43136300202AE00025AAE7F4
:1050C000164A116880235B000B431360FDF7A6FBB3
:1050D0000600124B1B68DB05A1D4FDF79FFB801B6C
:1050E0006428F6D9032014E0FDF798FB06000A4B6C
:1050F0001B6A9B07AFD4FDF791FB801B0A4B9842BC
:10510000F5D9032005E0D36908490B40D361ABE72B
:10511000002002B070BDC046001002400070004088
:10512000FFFCFFFFFFFFFEFF88130000FFFFFFEF04
:1051300030B5036A026A0124A243026242688469AC
:105140007325AC430D682C430225AB438D682B437C
:10515000114DA84205D0114DA84202D0104DA842D1
:1051600005D10825AB43CD682B430425AB430A4D3D
:10517000A84205D0094DA84202D0094DA84205D148
:10518000084D2A404D692A438D692A434260846153
:105190004A684263036230BD002C01400044014074
:1051A00000480140FFFCFFFF70B5036A026A184C1B
:1051B000224002624468C2697325AA430E681643FE
:1051C000144A13408A6812021343134A904216D0BD
:1051D000114A904205D0114A904202D0104A9042A2
:1051E00007D1104A22404C69240114438A691501F1
:1051F0002C434460C6614A68C263036270BD0A4AB8
:105200001A40CB681B021343084A1340E0E7C0462C
:10521000FFFEFFFFFFFDFFFF002C014000440140A7
:1052200000480140FFCFFFFFFFF7FFFFFFFBFFFF3D
:1052300030B5036A026A114C224002624568C269B5
:105240000F4C22400C68240222430E4C1C408B68F9
:105250001B0323430C4CA04205D00C4CA04202D0AF
:105260000B4CA04204D10B4C25404C69A4012543B2
:105270004560C2614A680264036230BDFFEFFFFF10
:10528000FF8CFFFFFFDFFFFF002C014000440140C7
:1052900000480140FFBFFFFF3D23C35C012B23D12A
:1052A0003C330222C2540268D36801210B43D3600D
:1052B00003680F4A93420CD08022D205934208D053
:1052C0000C4A934205D01A6801210A431A60002053
:1052D0000BE0996807220A40062A07D01A680121C4
:1052E0000A431A60002000E0012070470020FCE71C
:1052F000002C014000040040704770477047704721
:1053000070B504000368DE681D69AA070ED5B207F0
:105310000CD5032252421A610123037703689B696B
:105320009B0751D0FFF7E9FF002323776B0712D5C6
:10533000730710D52368052252421A61022323778E
:1053400023689A69C0239B001A4243D02000FFF7CC
:10535000D4FF002323772B0710D533070ED52368FE
:10536000092252421A61042323772368DB699B07D1
:1053700037D02000FFF7C1FF00232377EB0612D5BB
:10538000F30610D52368112252421A6108232377AD
:105390002368DA69C0239B001A4229D02000FFF756
:1053A000ACFF00232377EB0701D5F30727D42B06A7
:1053B00001D533062BD46B0601D573062FD4AB066B
:1053C00001D5B30633D470BDFFF796FF2000FFF779
:1053D00095FFA9E72000FFF78FFF2000FFF78EFF62
:1053E000B7E72000FFF788FF2000FFF787FFC3E73C
:1053F0002000FFF781FF2000FFF780FFD1E723683F
:10540000022252421A61200000F040FBCFE72368DD
:10541000812252421A61200000F029FACBE723686A
:10542000412252421A612000FFF769FFC7E7236853
:10543000212252421A61200000F018FAC3E700004E
:105440000368214A904206D08022D205904202D0C1
:105450001E4A904203D1702293434A6813431A4A6A
:1054600090420FD08022D20590420BD0174A904232
:1054700008D0174A904205D0164A904202D0164AE8
:10548000904203D1154A1340CA68134380229343C4
:105490004A69134303608B68C3620B6883620A4BDB
:1054A000984205D00B4B984202D00B4B984201D149
:1054B0000B690363012343610269134203D003694B
:1054C0000122934303617047002C01400004004017
:1054D000002000400044014000480140FFFCFFFF65
:1054E00070B5041E26D03D23C35C002B1CD03D2587
:1054F00002236355210001C9FFF7A2FF01234622C1
:10550000A354083AA3540132A3540132A3540132E4
:10551000A3540132A3540132A3540132A3540132E3
:10552000A3546355002070BD3C330022C254FCF7E5
:1055300061FFDCE70120F6E770B5041E26D03D23AD
:10554000C35C002B1CD03D2502236355210001C9FB
:10555000FFF776FF01234622A354083AA3540132F1
:10556000A3540132A3540132A3540132A354013293
:10557000A3540132A3540132A3546355002070BDDB
:105580003C330022C254FCF71FFFDCE70120F6E7A2
:1055900030B5036A026A1024A24302624568846936
:1055A000164A14400A6812021443202293438A6860
:1055B00012011343124A904216D0114A904205D06C
:1055C000104A904202D0104A904207D10F4A2A4016
:1055D0004D69AD0015438A699200154345608461A9
:1055E0004A688263036230BD802293431A00CB680D
:1055F0001B01134340229343DFE7C046FF8CFFFFAC
:10560000002C01400044014000480140FFF3FFFF2F
:1056100070B504000D003C23C35C012B00D16AE08F
:105620003C230121C154082A50D01CD8002A38D06C
:10563000042A16D129000068FFF7AAFF22689169A1
:1056400080231B010B439361226893692B490B4014
:10565000936121688B692A69120213438B610020D0
:105660001BE0080019E00C2A16D129000068FFF79A
:10567000DFFD2268D16980231B010B43D3612268BF
:10568000D3691E490B40D3612168CB692A69120294
:105690001343CB61002000E001203C230022E254B0
:1056A00070BD29000068FFF743FD22689369082157
:1056B0000B4393612268936904398B439361226899
:1056C000936929690B4393610020E6E7290000688C
:1056D000FFF76AFD2268D36908210B43D361226872
:1056E000D36904398B43D3612268D36929690B4399
:1056F000D3610020D1E70220D2E7C046FFFBFFFFC5
:1057000010B51F23194001248C40036AA343036290
:10571000036A8A401343036210BD000010B5040001
:10572000002930D13E23C35C013B5A1E9341DBB2BA
:10573000002B5CD100293FD13E330222E2540122EA
:105740002068FFF7DDFF23682B4A934205D02B4AE0
:10575000934202D02A4A934204D1596C8022120209
:105760000A435A642368244A934235D08022D205E2
:10577000934231D0234A93422ED01A6801210A4322
:105780001A60002034E0042908D008290DD04123F4
:10579000C35C013B5A1E9341DBB2C9E73F23C35CA4
:1057A000013B5A1E9341DBB2C2E74023C35C013B7D
:1057B0005A1E9341DBB2BBE7042905D0082907D064
:1057C00041230222E254BAE73F230222E254B6E721
:1057D00040230222E254B2E7996807220A40062ACF
:1057E00007D01A6801210A431A60002000E0012056
:1057F00010BD0020FCE7C046002C014000440140E1
:10580000004801400004004030B53C23C35C012B3C
:1058100025D03C230122C25401330132C254036813
:105820005A689C687025AA430D682A435A60036829
:105830000C4A934206D08022D205934202D00A4AF3
:10584000934204D1802294434A6814439C603D23D0
:105850000122C254013B0022C254002030BD02206C
:10586000FCE7C046002C0140000400407047704730
:10587000012800D07047034B9942FBD1024B034AE9
:105880001A60F7E7FFFF0000400A00200000FA431B
:105890007047000010B5764B587899780902084394
:1058A000DA78120402431C79240614431B78714AE7
:1058B0001370272B07D8002B0FD0272B0DD89B0058
:1058C0006D4AD3589F46FF2B07D1694B59784B1E21
:1058D0009941C9B26948FCF711FF694B0522654936
:1058E0006848FEF73DF80028F7D105226049654871
:1058F000FEF73CF90028F8D110BD604B5C61002236
:10590000032AEADC5D4B30339B1801321978594B7E
:105910009954F5E7594B9C610022032ADDDC574B73
:1059200034339B1801321978524B9954F5E7211CF6
:105930005248FCF7C7FE0022032ACEDC4F4B30331F
:105940009B18013219784B4B9954F5E70022032A32
:10595000C3DC4A4B30339B1801321978454B9954BC
:10596000F5E70022032AB8DC444B34339B1801329C
:105970001978404B9954F5E73D4B5A78424B5A7091
:1059800002221A700022032AA7DC3C4B30339B18FA
:1059900001321978374B9954F5E7384B5C603A4B34
:1059A000DC6102221A700022032A96DC334B30336A
:1059B0009B18013219782F4B9954F5E72F4BDC6077
:1059C000314B5C6202221A700022032A00DD84E758
:1059D0002A4B30339B1801321978264B9954F4E73F
:1059E000264B9C60284B1C6202221A700022032A5C
:1059F00000DD72E7214B30339B18013219781D4BC3
:105A00009954F4E71D4B1C611F4B9C6202221A70D3
:105A10000022032A00DD60E7184B30339B18013267
:105A20001978144B9954F4E7211C1448FCF74AFEEA
:105A3000154B9C6002221A700022032A00DD4CE7FD
:105A40000E4B30339B18013219780A4B9954F4E706
:105A50000D4B5C6002221A700022032A00DD3CE735
:105A6000064B30339B1801321978024B9954F4E7F6
:105A7000440500204C050020B0610008400A0020C9
:105A800010270000F0040020100A0020F0B5C646E0
:105A900000B502681F4B9A4202D080BCB846F0BDE8
:105AA0001D4D012229001D48FCF7EAFF1C4CA76B85
:105AB000391CE06BFBF792F8061C2888FBF75CFAB0
:105AC0008046A08DFBF758FA051C011C4046FBF7E9
:105AD00085F8011C301CFAF75BFF061CE08DFBF714
